S012000053656E736F72524649442E7372656373
S11300000C9434000C9451000C9451000C94510045
S11300100C9451000C9437080C9451000C9451002A
S11300200C9451000C9451000C9451000C94510008
S11300300C9451000C9478080C9451000C945100C9
S11300400C9451000C9451000C94F2020C94510045
S11300500C9451000C9451000C9451000C945100D8
S11300600C9451000C94510011241FBECFEFD8E022
S1130070DEBFCDBF16E0A0E0B1E0E2E8FEE102C0E1
S113008005900D92A43BB107D9F727E0A4EBB6E0A5
S113009001C01D92A336B207E1F70E94A7080C9491
S11300A03F0F0C9400002F923F924F925F926F92F9
S11300B07F928F929F92AF92BF92CF92DF92EF92F4
S11300C0FF920F931F93CF93DF9300D000D0CDB74F
S11300D0DEB79A8389838DB79EB79C838B83E9812E
S11300E0FA8101900020E9F731974F0189819A81C3
S11300F0881A990A9924140191E0291A31088DB7B4
S11301009EB7881999090FB6F8949EBF0FBE8DBF8C
S11301100DB71EB70F5F1F4F412C512C3201809138
S1130120B4069091B506A091B606B091B706805F6B
S1130130984DAF4FBF4F481659066A067B0660F0CC
S11301401092B4061092B5061092B6061092B70635
S113015082E080935D0771C080915D07843011F463
S113016010925D07EDEBF6E001900020E9F731977E
S1130170CF018D5B96406C01E12CF12CC114D104AC
S1130180E104F10409F44DC08FE99FE00197F1F710
S113019000C000009FEF491A590A690A790AEDEB79
S11301A0F6E001900020E9F73197CF018D5B96408E
S11301B0A0E0B0E0C816D906EA06FB0691F527C010
S11301C0A101B8016F5F7F4FC8010E94E60BF501E2
S11301D0E354F94F8081F801E20DF31D8083A401FB
S11301E069817A81C8010E941E0C892B61F41092E6
S11301F0B4061092B5061092B6061092B70681E0C6
S113020080935D071AC08FEFA81AB80A02C0A12C08
S1130210B12CC501A0E0B0E08C159D05AE05BF056D
S113022078F28FE99FE00197F1F700C000009FEF9B
S1130230491A590A690A790A72CF8B819C810FB6CF
S1130240F8949EBF0FBE8DBF0F900F900F900F902C
S1130250DF91CF911F910F91FF90EF90DF90CF909E
S1130260BF90AF909F908F907F906F905F904F90D2
S11302703F902F90089580EAEDEBF6E0DF011D92A8
S11302808A95E9F71092BB061092BA061092B90645
S11302901092B8060895CF93DF93EC0184E0809325
S11302A05D07CE010E94530080915D078823C9F346
S11302B0DF91CF9108950E944B0180915D078230B8
S11302C011F081E0089580E008950F931F93CF9378
S11302D0DF938C01EB010E943B01C8010E942A08B4
S11302E080E895E00E942A08CE010E945B01DF911C
S11302F0CF911F910F9108950F931F93CF93DF9385
S1130300CDB7DEB764970FB6F894DEBF0FBECDBF8E
S11303108E010F5F1F4F94E1F80111929A95E9F74E
S11303201F928F9387ED93E09F938F931F930F9367
S11303300E94550C1C8A62EC73E0C8010E9465019E
S11303400F900F900F900F900F900F9064960FB630
S1130350F894DEBF0FBECDBFDF91CF911F910F91F7
S11303600895CF93C0E011C062EC73E084EE93E093
S11303700E94650181110BC062EC73E089EE93E089
S11303800E946501811103C0CF5FCC2369F381E032
S1130390CF9108950F931F93CF93DF93CDB7DEB71B
S11303A064970FB6F894DEBF0FBECDBF8E010F5F0A
S11303B01F4F94E1F80111929A95E9F71F928F93D8
S11303C08AEF93E09F938F931F930F930E94550C92
S11303D01C8A62EC73E0C8010E9465010F900F90C3
S11303E00F900F900F900F9064960FB6F894DEBFA5
S11303F00FBECDBFDF91CF911F910F9108950F9341
S11304001F93CF93DF93CDB7DEB7EC970FB6F89475
S1130410DEBF0FBECDBF8E010F5F1F4F2CE3F8016F
S113042011922A95E9F77F936F939F938F9387E0B7
S113043094E09F938F931F930F930E94550C1CAECF
S11304406AE174E0C8010E9465010FB6F894DEBF4A
S11304500FBECDBF811122C06DE274E08DEB96E03A
S11304600E943B0C892BE1F466E374E08DEB96E08B
S11304700E943B0C892BB1F46FE374E08DEB96E0A2
S11304800E943B0C892B81F468E474E08DEB96E0C8
S11304900E943B0C892B51F084E009C080E007C026
S11304A081E005C082E003C083E001C085E0EC96F2
S11304B00FB6F894DEBF0FBECDBFDF91CF911F9171
S11304C00F9108950F931F93CF93DF93CDB7DEB7AA
S11304D0EC970FB6F894DEBF0FBECDBF8E010F5F51
S11304E01F4F8CE3F80111928A95E9F75F934F93BC
S11304F07F936F9382E894E09F938F931F930F935E
S11305000E94550C6CE974E0C8010E9465010FB6A5
S1130510F894DEBF0FBECDBF811105C080915D0789
S1130520823019F403C081E001C085E0EC960FB677
S1130530F894DEBF0FBECDBFDF91CF911F910F9115
S11305400895EF92FF920F931F93CF93DF93CDB74C
S1130550DEB764970FB6F894DEBF0FBECDBF8C0133
S1130560CE0101967C0184E1F70111928A95E9F7A5
S1130570F80101900020E9F73197E01BF10B329666
S1130580FF93EF9386EA94E09F938F93FF92EF9209
S11305900E94550C1C8A64EB74E0C7010E9465013B
S11305A06CEB74E0C8010E9465010F900F900F90EE
S11305B00F900F900F90811105C080915D078230DC
S11305C019F403C081E001C085E064960FB6F89485
S11305D0DEBF0FBECDBFDF91CF911F910F91FF9072
S11305E0EF9008951F920F920FB60F9211242F933C
S11305F08F939F93EF93FF932FB7F894E091BA06EC
S1130600F091BB068091C600E354F94F808380913A
S1130610BA069091BB0601969093BB068093BA06E6
S11306208091BA069091BB06803A910541F41092EC
S1130630BB061092BA061092B9061092B8062FBFE4
S1130640FF91EF919F918F912F910F900FBE0F907B
S11306501F901895EF92FF920F931F93CF93DF9300
S1130660EC0168EC74E00E943B0C06967C016DEC96
S113067074E0CE010E943B0C0297EC01CE19DF0915
S1130680CE0101960E94BC0A8C01AE01B7010E9402
S11306902C0CC00FD11F1882C801DF91CF911F917C
S11306A00F91FF90EF9008956F927F928F929F9297
S11306B0AF92BF92CF92DF92EF92FF920F931F936C
S11306C0CF93DF93CDB7DEB7C257D1400FB6F894BE
S11306D0DEBF0FBECDBF4C015B013A01690141EDA4
S11306E054E064ED74E080E00E94620285E1E6E09B
S11306F0F1E08E010F5F1F4FD80101900D928A9592
S1130700E1F7FE01769689E491E0DF019C011D92F8
S113071021503040E1F77E0131EAE31A3EEFF30A5B
S1130720F7011192119282E1DF011D928A95E9F796
S1130730B401C8010E94F80BF80101900020E9F708
S113074031978FE290E091838083B501C8010E94C4
S1130750F80BD8010D900020E9F711978CE6E2E13F
S1130760F5E001900D928A95E1F7B301C8010E946A
S1130770F80BD8010D900020E9F7119783E1E5EE1D
S1130780F4E001900D928A95E1F7F60101900020C2
S1130790E9F73197EC19FD09FF93EF9388EF94E0A3
S11307A09F938F93FF92EF920E94550CB701C8015B
S11307B00E94F80BD8010D900020E9F711978EE004
S11307C0ECEFF4E001900D928A95E1F7B601C801CF
S11307D00E94F80BF80101900020E9F731978DE7AA
S11307E090E091838083C8010E94A1020F900F9032
S11307F00F900F900F900F90CE58DE4F0FB6F894D5
S1130800DEBF0FBECDBFDF91CF911F910F91FF903F
S1130810EF90DF90CF90BF90AF909F908F907F909C
S11308206F900895AF92BF92CF92DF92EF92FF92B2
S11308300F931F93CF93DF93CDB7DEB7CE55D1403F
S11308400FB6F894DEBF0FBECDBF5C016B017A0119
S113085041ED54E064ED74E080E00E94620283E1C3
S1130860E4E6F2E08E010F5F1F4FD80101900D9274
S11308708A95E1F7FE0174968BE491E0DF019C0117
S11308801D9221503040E1F7B501C8010E94F80BD8
S1130890F80101900020E9F731978FE290E091830D
S11308A08083B601C8010E94F80BD8010D90002086
S11308B0E9F7119784E7EAE0F5E001900D928A9553
S11308C0E1F7B701C8010E94F80BD8010D90002090
S11308D0E9F7119785E0EEE7F5E001900D928A952E
S11308E0E1F7C8010E94A102C25ADE4F0FB6F89484
S11308F0DEBF0FBECDBFDF91CF911F910F91FF904F
S1130900EF90DF90CF90BF90AF900895EF92FF9259
S11309100F931F93CF93C82F8B017A010E94A205D6
S113092081111EC080ED0E94C50581111BC08C2F52
S11309300E94E005811118C00E94AF05811116C004
S113094081ED0E94C505811113C0B701C8010E9441
S1130950190681110FC00E94BC0581110DC00DC084
S113096081E00BC081E009C081E007C081E005C0DF
S113097081E003C081E001C081E0CF911F910F911C
S1130980FF90EF9008950F931F93CF93DF93CDB70C
S1130990DEB727970FB6F894DEBF0FBECDBF8C012C
S11309A047E050E0BE016F5F7F4F80E00E94860405
S11309B0811166C09981392F32953F703770292F84
S11309C02F70330F932F990F990F390F932F920F85
S11309D0F80190839A81392F32953F703770292F0F
S11309E02F70330F932F990F990F390F932F920F65
S11309F091839B81292F22952F702370392F3F706B
S1130A00220F422F440F440F240F230F2283929569
S1130A109F7093702C812770990F940F920F93837A
S1130A209D81392F32953F703370292F2F70330FEA
S1130A30932F990F990F390F932F920F94839E81BF
S1130A4097FB222720F9258394FB332730F9292F9C
S1130A502F70932F990F392F330F330F930F920F5A
S1130A6096839F81392F32953F70292F2F70932FB2
S1130A70990F392F330F330F930F920F978301C0C0
S1130A8081E027960FB6F894DEBF0FBECDBFDF918D
S1130A90CF911F910F91089582E00E94590680938F
S1130AA05E07682F606282E00E94460683E00E942F
S1130AB0590680935E07682F606883E00E944606AB
S1130AC00895CF93C82F8A3021F483E895E00E94DB
S1130AD02A08C43121F488E995E00E942A08CE311D
S1130AE021F489EA95E00E942A08CF91089587E3CA
S1130AF00E94590680935E078059833028F08AE06B
S1130B000E94610580E0089581E008950E94A20595
S1130B10811105C080ED0E94C505882329F084E178
S1130B200E94610580E0089581E008958091BC00F1
S1130B308823E4F7089584E08093BC0088E48093DC
S1130B40B800089584EA8093BC000E9496059091B1
S1130B50B900987F81E0983009F480E0089584EA30
S1130B608093BC000E9496059091B900987F81E023
S1130B70903109F480E0089584E98093BC00809169
S1130B80BC0084FDFCCF80E00895CF93C82F8093F0
S1130B90BB0084E88093BC000E9496052091B900B4
S1130BA0287F30E0C0FF03C040E450E002C048E1C9
S1130BB050E081E04217530709F480E0CF91089593
S1130BC08093BB0084E88093BC000E9496059091BA
S1130BD0B900987F81E0983209F480E00895CF93BA
S1130BE0DF93EC0184EC8093BC000E949605809115
S1130BF0BB0088839091B900987F81E0903509F417
S1130C0080E0DF91CF910895CF93DF93EC0184E8E6
S1130C108093BC000E9496058091BB0088839091CC
S1130C20B900987F81E0983509F480E0DF91CF9195
S1130C300895EF92FF920F931F93CF93DF937C015C
S1130C408B0120E030E008C0C701820F931F0E948F
S1130C50EF059E01811110C0E9012196C017D1074B
S1130C6098F3012B59F0C701820F931F0E940406C9
S1130C70882329F081E003C081E001C080E0DF9196
S1130C80CF911F910F91FF90EF900895CF93C62FAE
S1130C9095B19B7F95B990E0880F991F8E770E943C
S1130CA00C088C2F0E940C0885B1846085B9CF9103
S1130CB0089595B19B7F95B990E0880F991F8E7721
S1130CC080680E940C0880E00E940C0895B1946032
S1130CD095B908956FE081E00E94460608950E9448
S1130CE06A066DE88AE20E9446066EE38BE20E9481
S1130CF046066EE18CE20E94460660E08DE20E94A8
S1130D00460660E485E10E9446066DE381E10E94A7
S1130D10460684E10E945906982F937029F4682F9F
S1130D20636084E10E94460608954F925F926F9239
S1130D307F928F929F92AF92BF92CF92DF92EF9267
S1130D40FF920F931F93CF93DF93D82F7B01C42F70
S1130D5059018C3029F08E3061F0912C812C10C017
S1130D600F2EF0E39F2EF02D0F2EF7E78F2EF02D90
S1130D7007C06894992494F80F2EF2E18F2EF02D79
S1130D8084E00E945906682F6F7784E00E9446062B
S1130D908AE00E945906682F60688AE00E9446062D
S1130DA060E081E00E944606412C512C32010CC0C7
S1130DB0F701E40DF51D608189E00E9446068FEF7E
S1130DC0481A580A680A780A8C2F90E0A0E0B0E02C
S1130DD0481659066A067B0658F36D2F81E00E9477
S1130DE04606DC3041F48DE00E945906682F6068A5
S1130DF08DE00E9446060F2EF0EDCF2EF7E0DF2E99
S1130E00E12CF12CF02D84E00E945906C82FE1E07A
S1130E10CE1AD108E108F10829F080FD03C0892D1C
S1130E208C2389F38DE00E945906682F6F778DE03B
S1130E300E944606CD28CE28CF2809F460C086E05B
S1130E400E9459068B7109F05CC0C821C0FD02C024
S1130E50C1E001C0C2E0DC3009F054C08AE00E9465
S1130E605906D82F8CE00E945906282F2770A9F024
S1130E708D2F90E00197880F991F880F991F880F75
S1130E80991F820F911D092E000CAA0BBB0BF801B0
S1130E9080839183A283B38311C08D2F90E0880F48
S1130EA0991F880F991F880F991F092E000CAA0BF0
S1130EB0BB0BF80180839183A283B383D11101C05A
S1130EC0D1E0D13108F0D0E1C12CD12C76010DC094
S1130ED085010C0D1D1D89E00E945906F8018083CF
S1130EE0FFEFCF1ADF0AEF0AFF0A8D2F90E0A0E090
S1130EF0B0E0C816D906EA06FB0650F303C0C3E007
S1130F0001C0C3E08C2FDF91CF911F910F91FF900F
S1130F10EF90DF90CF90BF90AF909F908F907F9095
S1130F206F905F904F900895EF92FF920F931F93ED
S1130F30CF93DF9300D000D0CDB7DEB7182F7B015D
S1130F4067E08DE00E944606F70110838E010F5F73
S1130F501F4F970141E0B7018CE00E949506813054
S1130F6051F449815A816B817C814031510561057D
S1130F70710519F403C083E001C083E00F900F9062
S1130F800F900F90DF91CF911F910F91FF90EF90F1
S1130F900895EF92FF920F931F93CF93DF9300D0A6
S1130FA000D0CDB7DEB77C0160E08DE00E9446063C
S1130FB083E9F701808380E281838E010F5F1F4FF5
S1130FC0970142E0B7018CE00E949506813091F4CC
S1130FD007C0F701E90FF11D308123279F5F02C08D
S1130FE020E090E09430A8F3F701E90FF11D90811F
S1130FF0291383E00F900F900F900F90DF91CF9102
S11310001F910F91FF90EF90089584B18C6284B981
S11310108CB581658CBD08958EBD0DB407FEFDCFE2
S11310208EB508951092C5008093C40088E980931A
S1131030C10086E08093C2008AB182608AB98AB115
S11310408E7F8AB908959091C00095FFFCCF80935C
S1131050C6000895CF93DF93EC0103C00E942308D8
S1131060219688818111FACFDF91CF9108951F9243
S11310700F920FB60F9211242F933F934F935F93C8
S11310806F937F938F939F93AF93BF93EF93FF934C
S11310902FEF83EC99E0215080409040E1F700C0AD
S11310A000004B9908C08BB180588BB98AEB95E04E
S11310B00E942A0803C08BB180588BB9FF91EF912D
S11310C0BF91AF919F918F917F916F915F914F915C
S11310D03F912F910F900FBE0F901F90189585E0B0
S11310E0809381001092800081E080936F000895C6
S11310F01F920F920FB60F9211242F933F934F9389
S11311005F936F937F938F939F93AF93BF93EF936B
S1131110FF938091BC06882349F08BB18F778BB9FC
S11311201092BC068BEC95E00E942A08FF91EF9187
S1131130BF91AF919F918F917F916F915F914F91EB
S11311403F912F910F900FBE0F901F901895CF9342
S1131150DF93CDB7DEB7CA55D2400FB6F894DEBFE1
S11311600FBECDBFFE01EB50FF4F88E0DF011D92A3
S11311708A95E9F70E940508BFEF23ED80E3B1509B
S113118020408040E1F700C000000E946F069FEFFE
S1131190A9E6B8E19150A040B040E1F700C00000DA
S11311A00E947705882379F088ED95E00E942A084B
S11311B02FEF89E698E1215080409040E1F700C08C
S11311C000000E944C050E949B050E94860588230E
S11311D021F08AEE95E00E942A088AB180688AB9D3
S11311E08BB18F778BB98AB1877F8AB98BB18860CD
S11311F08BB9E8E6F0E0808184608083EDE6F0E07E
S11312008081886080830E946F08789488E00E94BF
S113121012080E94B10183E090E00E94CA0180E0BC
S113122090E00E947C0168EF75E083E096E00E9404
S1131230FF010E947705882309F494C1BE016F5F02
S11312407F4F82E50E949407813009F081C1CE016D
S113125001960E94C9073C812B819A8189811F9242
S11312603F931F922F931F929F931F928F938BE113
S113127096E09F938F938E010F5E1F4F1F930F93E2
S11312800E94550CCE018B509F4F0E94C304CB503B
S1131290DF4F5881C55FD040CA50DF4F4881C65FD9
S11312A0D040C950DF4F3881C75FD040C450DF4FB2
S11312B02881CC5FD040C550DF4F9881CB5FD040B0
S11312C0C750DF4F8881C95FD0401F925F931F9240
S11312D04F931F923F931F922F931F929F931F929E
S11312E08F9387E296E09F938F93CE018F569F4F03
S11312F09F938F930E94550C49E356E0B80180E513
S113130096E00E9412048DEB96E00E942A03BC0131
S1131310C8010E94170C8BB180688BB981E080935F
S1131320BC068DE394E1909385008093840049E3A7
S113133056E06EE576E080E596E00E9412048DEBBF
S113134096E00E942A0369E576E00E940E0C8C0167
S11313508DEB96E00E942A036DE676E00E940E0C67
S11313607C010FB6F894DEBF0FBECDBF012B41F058
S113137049E356E063E776E080E596E00E941204D4
S11313808E0103501F4FF80101900020E9F73197B7
S1131390AF01401B510B40515109B8016F5E7F4FA3
S11313A0C8010E94E60BCE018F569F4F9F938F93E7
S11313B088E994E09F938F936E01B1E1CB0ED11C29
S11313C0DF92CF920E94550CB601C8010E94F80B1F
S11313D0980149E356E063E776E080E596E00E94F1
S11313E054032DE636E049E356E06EE576E080E509
S11313F096E00E9454030F900F900F900F900F905F
S11314000F90EF2841F049E356E065E876E080E587
S113141096E00E9412048E0103501F4FF8010190C0
S11314200020E9F73197AF01401B510B405151099E
S1131430B8016F5E7F4FC8010E94E60BCE018F5644
S11314409F4F9F938F9388E994E09F938F937E019E
S113145021E1E20EF11CFF92EF920E94550CB701BC
S1131460C8010E94F80B980149E356E065E876E06C
S113147080E596E00E94540349E356E063E776E092
S113148080E596E00E9412048DEB96E00E942A0308
S1131490BC01C8010E94170CF80101900020E9F773
S11314A03197AF01401B510B43545109BE016F5B8F
S11314B07E4FC8010E94E60B2DE636E049E356E074
S11314C06EE576E080E596E00E945403CE018B50F1
S11314D09F4F0E94C304CB50DF4F5881C55FD0405B
S11314E0CA50DF4F4881C65FD040C950DF4F3881B2
S11314F0C75FD040C450DF4F2881CC5FD040C55077
S1131500DF4F9881CB5FD040C750DF4F8881C95FE0
S1131510D0401F925F931F924F931F923F931F924D
S11315202F931F929F931F928F9386E996E09F9328
S11315308F9383E09CE09F938F930E94550C83E0EC
S11315409CE00E942A080FB6F894DEBF0FBECDBF00
S11315509FEFA7EAB1E69150A040B040E1F700C088
S1131560000067CE2FEF83ED90E321508040904040
S1131570E1F700C000005DCE0F931F93CF93DF937C
S11315808230910510F482E090E0E0916107F091DF
S1131590620720E030E0A0E0B0E0309719F140812C
S11315A051810281138148175907C8F084179507A0
S11315B069F4109731F012960C93129713961C93BA
S11315C027C0009361071093620722C021153105DB
S11315D019F04217530718F49A01BD01EF01DF0116
S11315E0F801DBCF21153105F9F0281B390B243024
S11315F0310580F48A819B816115710521F0FB011D
S11316009383828304C09093620780936107FE01F1
S1131610329644C0FE01E20FF31F8193919322504E
S11316203109398328833AC020915F0730916007DC
S1131630232B41F420910201309103013093600780
S113164020935F072091000130910101211531059C
S113165041F42DB73EB74091040150910501241B7C
S1131660350BE0915F07F0916007E217F307A0F4F0
S11316702E1B3F0B2817390778F0AC014E5F5F4FE4
S11316802417350748F04E0F5F1F509360074093AF
S11316905F078193919302C0E0E0F0E0CF01DF9116
S11316A0CF911F910F910895CF93DF93009709F481
S11316B081C0FC01329713821282A0916107B0911C
S11316C06207109781F420813181820F931F20914A
S11316D05F07309160072817390751F5F0936007C9
S11316E0E0935F0767C0ED0120E030E0CE17DF072D
S11316F040F44A815B819E0141155105F1F0EA01F4
S1131700F5CFD383C28340815181840F951FC817BD
S1131710D90759F488819981840F951F0296918382
S113172080838A819B81938382832115310529F4E7
S1131730F0936207E09361073DC0E901FB83EA830C
S113174049915991C40FD51FEC17FD0761F48081AD
S11317509181840F951F0296E90199838883828180
S113176093819B838A83E0E0F0E012968D919C91B3
S11317701397009719F0FD01DC01F7CF8D919C912F
S113178011979D012E5F3F4F820F931F20915F079A
S1131790309160072817390769F4309729F41092BB
S11317A062071092610702C013821282B09360072D
S11317B0A0935F07DF91CF910895FB01DC0102C084
S11317C001900D9241505040D8F708956817790759
S11317D068F4FB01DC01E40FF51FA40FB51F02C080
S11317E002900E9241505040D8F708950C94DD0BAE
S11317F0FB01DC010D900020E9F7119701900D9297
S11318000020E1F70895FC018191861721F08823D7
S1131810D9F7992708953197CF010895FB01DC0189
S11318208D91019080190110D9F3990B0895FB0152
S1131830DC0101900D920020E1F70895FB01DC0129
S11318404150504030F08D910190801919F40020DE
S1131850B9F7881B990B0895FB01DC0141505040F6
S113186048F001900D920020C9F701C01D9241502B
S11318705040E0F70895FB0151915523A9F0BF01B1
S1131880DC014D9145174111E1F759F4CD01019067
S1131890002049F04D9140154111C9F3FB0141115C
S11318A0EFCF81E090E001970895AEE0B0E0EBE582
S11318B0FCE00C94160F0D891E8986E08C831A8334
S11318C009838FEF9FE79E838D83AE01475E5F4F51
S11318D06F89788DCE0101960E94770CEF81F8858F
S11318E0E00FF11F10822E96E4E00C94320FABE06F
S11318F0B0E0EDE7FCE00C94080F6C017B018A0179
S1131900FC0117821682838181FFCCC1CE0101962E
S11319103C01F6019381F70193FD859193FF819139
S11319207F01882309F4BAC1853239F493FD859186
S113193093FF81917F01853229F4B60190E00E94E2
S11319406E0EE7CF912C212C312CFFE1F315D8F04A
S11319508B3279F038F4803279F08332A1F4232D7C
S113196020611DC08D3261F0803369F4232D216024
S113197016C0832D8260382EE32DE4603E2E2AC0EB
S1131980F32DF8601DC037FC2DC020ED280F2A3040
S113199040F08E32B9F436FC81C1232D2064322EFE
S11319A019C036FE06C08AE0989E200D1124922E9E
S11319B011C0EAE02E9E200D1124222EF32DF06298
S11319C03F2E08C08C3621F4832D8068382E02C047
S11319D0883641F4F70193FD859193FF81917F014E
S11319E08111B3CF982F9F7D9554933028F40C5FC9
S11319F01F4F9FE399830DC0833631F0833771F015
S1131A00833509F059C021C0F801808189830E5FB4
S1131A101F4F88248394912C530113C02801F2E0B2
S1131A204F0E511CF801A080B18036FE03C0692D11
S1131A3070E002C06FEF7FEFC5010E94630E4C019E
S1131A408201F32DFF773F2E16C0280122E0420EBB
S1131A50511CF801A080B18036FE03C0692D70E0EE
S1131A6002C06FEF7FEFC5010E94580E4C01F32DA9
S1131A70F0683F2E820133FC1BC0822D90E0881653
S1131A809906B0F4B60180E290E00E946E0E2A94AA
S1131A90F4CFF50137FC859137FE81915F01B601E2
S1131AA090E00E946E0E21102A9421E0821A91087F
S1131AB08114910471F7E8C0843611F0893641F538
S1131AC0F80137FE07C060817181828193810C5FC8
S1131AD01F4F08C060817181072E000C880B990B81
S1131AE00E5F1F4FF32DFF763F2E97FF09C0909591
S1131AF08095709561957F4F8F4F9F4FF0683F2E73
S1131B002AE030E0A3010E94AA0E882E861845C060
S1131B10853731F4232D2F7EB22E2AE030E025C004
S1131B20932D997FB92E8F36C1F018F4883579F04A
S1131B30B5C0803719F0883721F0B0C0E92FE061D3
S1131B40BE2EB4FE0DC0FB2DF460BF2E09C034FEC2
S1131B500AC0292F2660B22E06C028E030E005C056
S1131B6020E130E002C020E132E0F801B7FE07C016
S1131B7060817181828193810C5F1F4F06C06081F7
S1131B80718180E090E00E5F1F4FA3010E94AA0EB6
S1131B90882E8618FB2DFF773F2E36FE0DC0232D91
S1131BA02E7FA22E891458F434FE0BC032FC09C0D7
S1131BB0832D8E7EA82E05C0B82CA32C03C0B82C70
S1131BC001C0B92CA4FE0FC0FE01E80DF11D8081F7
S1131BD0803321F49A2D997EA92E09C0A2FE06C055
S1131BE0B394B39404C08A2D867809F0B394A3FC0B
S1131BF011C0A0FE06C0B21488F4280C922C9B18C5
S1131C000EC0B21460F4B60180E290E00E946E0E41
S1131C10B394F7CFB21418F42B1802C0982C212CCB
S1131C20A4FE10C0B60180E390E00E946E0EA2FEF6
S1131C3017C0A1FC03C088E790E002C088E590E0EB
S1131C40B6010CC08A2D867859F0A1FE02C08BE241
S1131C5001C080E2A7FC8DE2B60190E00E946E0E06
S1131C60891438F4B60180E390E00E946E0E9A94D1
S1131C70F7CF8A94F301E80DF11D8081B60190E05D
S1131C800E946E0E8110F5CF222009F442CEB601D7
S1131C9080E290E00E946E0E2A94F6CFF6018681CF
S1131CA0978102C08FEF9FEF2B96E2E10C94240FF3
S1131CB0FC010590615070400110D8F78095909513
S1131CC08E0F9F1F0895FC01615070400190011018
S1131CD0D8F7809590958E0F9F1F08950F931F93AB
S1131CE0CF93DF93FB01238121FD03C08FEF9FEF8F
S1131CF02CC022FF16C046815781248135814217AA
S1131D00530744F4A081B1819D012F5F3F4F31837C
S1131D1020838C93268137812F5F3F4F378326831F
S1131D2014C08B01EC01FB010084F185E02D0995C1
S1131D30892BE1F6D80116968D919C9117970196FF
S1131D4017969C938E931697CE01DF91CF911F9196
S1131D500F910895FA01AA27283051F1203181F119
S1131D60E8946F936E7F6E5F7F4F8F4F9F4FAF4F9F
S1131D70B1E03ED0B4E03CD0670F781F891F9A1FB2
S1131D80A11D680F791F8A1F911DA11D6A0F711D66
S1131D90811D911DA11D20D009F468943F912AE072
S1131DA0269F11243019305D3193DEF6CF0108955A
S1131DB0462F4770405D4193B3E00FD0C9F7F6CF8B
S1131DC0462F4F70405D4A3318F0495D31FD405253
S1131DD0419302D0A9F7EACFB4E0A69597958795E9
S1131DE077956795BA95C9F70097610571050895C8
S1131DF09B01AC010A2E0694579547953795279574
S1131E00BA95C9F7620F731F841F951FA01D08950B
S1131E102F923F924F925F926F927F928F929F92F6
S1131E20AF92BF92CF92DF92EF92FF920F931F93E4
S1131E30CF93DF93CDB7DEB7CA1BDB0B0FB6F89495
S1131E40DEBF0FBECDBF09942A88398848885F84D5
S1131E506E847D848C849B84AA84B984C884DF8046
S1131E60EE80FD800C811B81AA81B981CE0FD11D2A
S1131E700FB6F894DEBF0FBECDBFED010895F89400
S1051E80FFCF8E
S1131E82000063072000504F5354202F76312F64F3
S1131E926174612F77726974652F0000000000007D
S1131EA2000000000000000000000000000000002C
S1131EB2000000000000000000000000000000001C
S1131EC2000000000000000000000000000000000C
S1131ED200000000000000000000000000000000FC
S1131EE200000000000000000000000000000000EC
S1131EF200000000000000000000000000000000DC
S1131F0200000000000000000000000000000000CB
S1131F1200000000000000000000000000000000BB
S1131F2200000000000000000000000000000000AB
S1131F32000000000000000000000000000000009B
S1131F42000000000000000000000000000000008B
S1131F52000000000000000000000000000000007B
S1131F62000000000000000000000000000000006B
S1131F72000000000000000000000000000000005B
S1131F82000000000000000000000000000000004B
S1131F92000000000000000000000000000000003B
S1131FA2000000000000000000000000000000002B
S1131FB2000000000000000000000000000000001B
S1131FC2000000000000000000000000000000000B
S1131FD200000000000000000000000000000000FB
S1131FE200000000474554202F76312F646174614C
S1131FF22F726561642F00000000000000000000E1
S113200200000000000000000000000000000000CA
S113201200000000000000000000000000000000BA
S113202200000000000000000000000000000000AA
S1132032000000000000000000000000000000009A
S1132042000000000000000000000000000000008A
S1132052000000000000000000000000000000007A
S1132062000000000000000000000000000000006A
S1132072000000000000000000000000000000005A
S1132082000000000000000000000000000000004A
S1132092000000000000000000000000000000003A
S11320A2000000000000000000000000000000002A
S11320B2000000000000000000000000000000001A
S11320C2000000000000000000000000000000000A
S11320D200000000000000000000000000000000FA
S11320E200000000000000000000000000000000EA
S11320F200000000000000000000000000000000DA
S113210200000000000000000000000000000000C9
S113211200000000000000000000000000000000B9
S113212200000000000000000000000000000000A9
S11321320000000000000000000000000000000099
S113214200000D0A4F4B0D0A0041542B4349504DD8
S11321524F44453D25640041542B4349504D555845
S11321623D256400415445300041540041542B4301
S11321724950434C4F53453D310041542B43574D35
S11321824F44453D25640041542B43574A41503D39
S1132192222573222C22257322000D0A574946490F
S11321A220434F4E4E45435445440D0A002B43579A
S11321B24A41503A31002B43574A41503A32002B9C
S11321C243574A41503A33002B43574A41503A3419
S11321D20041542B434950535441545553005354D2
S11321E2415455533A32005354415455533A3300EF
S11321F25354415455533A34005354415455533A69
S1132202350041542B43495053544152543D2254B6
S11322124350222C222573222C257300434F4E4E09
S11322224543540D0A0041542B43495053454E44EF
S11322323D2564000D0A4F4B0D0A3E000D0A53451D
S11322424E44204F4B0D0A0064617461007774732D
S1132252003830006170692E626565626F7474655E
S11322622E636F6D000D0A436F6E74656E742D6C70
S1132272656E6774683A2000256C64000D0A0D0AC5
S11322827B2264617461223A20003F6C696D697437
S11322923D3120485454502F312E310D0A4163638D
S11322A26570743A206170706C69636174696F6EF1
S11322B22F6A736F6E0D0A436F6E74656E742D54BC
S11322C27970653A206170706C69636174696F6ECC
S11322D22F6A736F6E0D0A486F73743A20617069C6
S11322E22E626565626F7474652E636F6D0D0A5894
S11322F22D417574682D546F6B656E3A20000D0A7A
S11323020D0A004E6F2073656E736F7220646574DC
S113231265637465640D0A004E6F20525443206352
S11323226F6E65637461646F00455350206E6F2055
S1132332636F6E65637461646F00426F746F6E20C5
S1132342617072657461646F0D0A0054696D65721F
S11323522061637469766F0053656E736F722064D3
S1132362657465637465640D0A0052544320436FB7
S11323726E65637461646F003031363138333333E0
S1132382383600466962657274656C20576946691D
S113239230353620322E3447487A0025783A25786B
S11323A23A25783A25780025642F25642F25642060
S11323B225643A25643A256400746F6B656E5F5731
S11323C26C7177665A717A79634E69506F5A4B0011
S11323D25461726A65746173007472756500746124
S11323E2726A6574615F325F626F6F6C0066616C02
S11323F27365007461726A6574615F325F656E74DD
S113240272616461007461726A6574615F325F73E0
S1132412616C69646100436C6F636B203D202564C9
S11324222F25642F25642025643A25643A256420E7
S10724320D0A00008B
S9030000FC
