S012000053656E736F72524649442E7372656373
S11300000C9434000C9451000C9451000C94510045
S11300100C9451000C943C080C9451000C94510025
S11300200C9451000C9451000C9451000C94510008
S11300300C9451000C947D080C9451000C945100C4
S11300400C9451000C9451000C94F2020C94510045
S11300500C9451000C9451000C9451000C945100D8
S11300600C9451000C94510011241FBECFEFD8E022
S1130070DEBFCDBF16E0A0E0B1E0E6E4FEE102C0E1
S113008005900D92A639B107D9F727E0A6E9B6E0A5
S113009001C01D92A534B207E1F70E94AC080C948C
S11300A0210F0C9400002F923F924F925F926F9217
S11300B07F928F929F92AF92BF92CF92DF92EF92F4
S11300C0FF920F931F93CF93DF9300D000D0CDB74F
S11300D0DEB79A8389838DB79EB79C838B83E9812E
S11300E0FA8101900020E9F731974F0189819A81C3
S11300F0881A990A9924140191E0291A31088DB7B4
S11301009EB7881999090FB6F8949EBF0FBE8DBF8C
S11301100DB71EB70F5F1F4F412C512C3201809138
S1130120960690919706A0919806B0919906805FE3
S1130130984DAF4FBF4F481659066A067B0660F0CC
S113014010929606109297061092980610929906AD
S113015082E080933F0771C080913F07843011F49F
S113016010923F07EFE9F6E001900020E9F731979C
S1130170CF018F5996406C01E12CF12CC114D104AC
S1130180E104F10409F44DC08FE99FE00197F1F710
S113019000C000009FEF491A590A690A790AEFE979
S11301A0F6E001900020E9F73197CF018F5996408E
S11301B0A0E0B0E0C816D906EA06FB0691F527C010
S11301C0A101B8016F5F7F4FC8010E94DC0BF501EC
S11301D0E156F94F8081F801E20DF31D8083A401FB
S11301E069817A81C8010E94000C892B61F4109204
S11301F0960610929706109298061092990681E03E
S113020080933F071AC08FEFA81AB80A02C0A12C26
S1130210B12CC501A0E0B0E08C159D05AE05BF056D
S113022078F28FE99FE00197F1F700C000009FEF9B
S1130230491A590A690A790A72CF8B819C810FB6CF
S1130240F8949EBF0FBE8DBF0F900F900F900F902C
S1130250DF91CF911F910F91FF90EF90DF90CF909E
S1130260BF90AF909F908F907F906F905F904F90D2
S11302703F902F90089580EAEFE9F6E0DF011D92A8
S11302808A95E9F710929D0610929C0610929B069F
S113029010929A060895CF93DF93EC0184E0809343
S11302A03F07CE010E94530080913F078823C9F382
S11302B0DF91CF9108950E944B0180913F078230D6
S11302C011F081E0089580E008950F931F93CF9378
S11302D0DF938C01EB010E943B01C8010E942F08AF
S11302E080E895E00E942F08CE010E945B01DF9117
S11302F0CF911F910F9108950F931F93CF93DF9385
S1130300CDB7DEB764970FB6F894DEBF0FBECDBF8E
S11303108E010F5F1F4F94E1F80111929A95E9F74E
S11303201F928F9387ED93E09F938F931F930F9367
S11303300E94370C1C8A62EC73E0C8010E946501BC
S11303400F900F900F900F900F900F9064960FB630
S1130350F894DEBF0FBECDBFDF91CF911F910F91F7
S11303600895CF93C0E011C062EC73E084EE93E093
S11303700E94650181110BC062EC73E089EE93E089
S11303800E946501811103C0CF5FCC2369F381E032
S1130390CF9108950F931F93CF93DF93CDB7DEB71B
S11303A064970FB6F894DEBF0FBECDBF8E010F5F0A
S11303B01F4F94E1F80111929A95E9F71F928F93D8
S11303C08AEF93E09F938F931F930F930E94370CB0
S11303D01C8A62EC73E0C8010E9465010F900F90C3
S11303E00F900F900F900F9064960FB6F894DEBFA5
S11303F00FBECDBFDF91CF911F910F9108950F9341
S11304001F93CF93DF93CDB7DEB7EC970FB6F89475
S1130410DEBF0FBECDBF8E010F5F1F4F2CE3F8016F
S113042011922A95E9F77F936F939F938F9387E0B7
S113043094E09F938F931F930F930E94370C1CAEED
S11304406AE174E0C8010E9465010FB6F894DEBF4A
S11304500FBECDBF811122C06DE274E08FE996E03A
S11304600E941D0C892BE1F466E374E08FE996E0A9
S11304700E941D0C892BB1F46FE374E08FE996E0C0
S11304800E941D0C892B81F468E474E08FE996E0E6
S11304900E941D0C892B51F084E009C080E007C044
S11304A081E005C082E003C083E001C085E0EC96F2
S11304B00FB6F894DEBF0FBECDBFDF91CF911F9171
S11304C00F9108950F931F93CF93DF93CDB7DEB7AA
S11304D0EC970FB6F894DEBF0FBECDBF8E010F5F51
S11304E01F4F8CE3F80111928A95E9F75F934F93BC
S11304F07F936F9382E894E09F938F931F930F935E
S11305000E94370C6CE974E0C8010E9465010FB6C3
S1130510F894DEBF0FBECDBF811105C080913F07A7
S1130520823019F403C081E001C085E0EC960FB677
S1130530F894DEBF0FBECDBFDF91CF911F910F9115
S11305400895EF92FF920F931F93CF93DF93CDB74C
S1130550DEB764970FB6F894DEBF0FBECDBF8C0133
S1130560CE0101967C0184E1F70111928A95E9F7A5
S1130570F80101900020E9F73197E01BF10B329666
S1130580FF93EF9386EA94E09F938F93FF92EF9209
S11305900E94370C1C8A64EB74E0C7010E94650159
S11305A06CEB74E0C8010E9465010F900F900F90EE
S11305B00F900F900F90811105C080913F078230FA
S11305C019F403C081E001C085E064960FB6F89485
S11305D0DEBF0FBECDBFDF91CF911F910F91FF9072
S11305E0EF9008951F920F920FB60F9211242F933C
S11305F08F939F93EF93FF932FB7F894E0919C060A
S1130600F0919D068091C600E156F94F8083809158
S11306109C0690919D06019690939D0680939C065E
S113062080919C0690919D06803A910541F4109228
S11306309D0610929C0610929B0610929A062FBF5C
S1130640FF91EF919F918F912F910F900FBE0F907B
S11306501F901895EF92FF920F931F93CF93DF9300
S1130660EC018B0168EC74E00E941D0C06967C0181
S11306706DEC74E0CE010E941D0C0297EC01CE19C2
S1130680DF09CE0101960E94B20AF80191838083AA
S1130690AE01B7010E940E0CF80180819181C80F50
S11306A0D91F1882DF91CF911F910F91FF90EF9086
S11306B008956F927F928F929F92AF92BF92CF9242
S11306C0DF92EF92FF920F931F93CF93DF93CDB7F7
S11306D0DEB7C257D1400FB6F894DEBF0FBECDBF10
S11306E04C015B013A01690141ED54E064ED74E0B1
S11306F080E00E94620285E1E6E0F1E08E010F5F96
S11307001F4FD80101900D928A95E1F7FE0176966C
S113071089E491E0DF019C011D9221503040E1F712
S11307207E0131EAE31A3EEFF30AF70111921192C6
S113073082E1DF011D928A95E9F7B401C8010E94A4
S1130740EE0BF80101900020E9F731978FE290E079
S113075091838083B501C8010E94EE0BD8010D90EE
S11307600020E9F711978CE6E2E1F5E001900D92A3
S11307708A95E1F7B301C8010E94EE0BD8010D90F0
S11307800020E9F7119783E1E5EEF4E001900D9282
S11307908A95E1F7F60101900020E9F73197EC1909
S11307A0FD09FF93EF9388EF94E09F938F93FF925B
S11307B0EF920E94370CB701C8010E94EE0BD801DA
S11307C00D900020E9F711978EE0ECEFF4E0019032
S11307D00D928A95E1F7B601C8010E94EE0BF8016B
S11307E001900020E9F731978DE790E091838083B1
S11307F0C8010E94A1020F900F900F900F900F90CC
S11308000F90CE58DE4F0FB6F894DEBF0FBECDBFAB
S1130810DF91CF911F910F91FF90EF90DF90CF90D8
S1130820BF90AF909F908F907F906F900895AF92FC
S1130830BF92CF92DF92EF92FF920F931F93CF93C9
S1130840DF93CDB7DEB7CE55D1400FB6F894DEBFF7
S11308500FBECDBF5C016B017A0141ED54E064ED44
S113086074E080E00E94620283E1E4E6F2E08E013B
S11308700F5F1F4FD80101900D928A95E1F7FE0199
S113088074968BE491E0DF019C011D92215030406D
S1130890E1F7B501C8010E94EE0BF80101900020B8
S11308A0E9F731978FE290E091838083B601C80124
S11308B00E94EE0BD8010D900020E9F7119784E710
S11308C0EAE0F5E001900D928A95E1F7B701C801DD
S11308D00E94EE0BD8010D900020E9F7119785E0F6
S11308E0EEE7F5E001900D928A95E1F7C8010E94C8
S11308F0A102C25ADE4F0FB6F894DEBF0FBECDBFC1
S1130900DF91CF911F910F91FF90EF90DF90CF90E7
S1130910BF90AF900895EF92FF920F931F93CF93E0
S1130920C82F8B017A010E94A70581111EC080ED9A
S11309300E94CA0581111BC08C2F0E94E5058111FC
S113094018C00E94B405811116C081ED0E94CA0529
S1130950811113C0B701C8010E941E0681110FC086
S11309600E94C10581110DC00DC081E00BC081E062
S113097009C081E007C081E005C081E003C081E0D7
S113098001C081E0CF911F910F91FF90EF900895E6
S11309900F931F93CF93DF93CDB7DEB727970FB68F
S11309A0F894DEBF0FBECDBF8C0147E050E0BE011E
S11309B06F5F7F4F80E00E948B04811166C0998134
S11309C0392F32953F703770292F2F70330F932FA3
S11309D0990F990F390F932F920FF80190839A81F1
S11309E0392F32953F703770292F2F70330F932F83
S11309F0990F990F390F932F920F91839B81292F70
S1130A0022952F702370392F3F70220F422F440FED
S1130A10440F240F230F228392959F7093702C818F
S1130A202770990F940F920F93839D81392F3295DC
S1130A303F703370292F2F70330F932F990F990F15
S1130A40390F932F920F94839E8197FB222720F9CD
S1130A50258394FB332730F9292F2F70932F990F77
S1130A60392F330F330F930F920F96839F81392FB2
S1130A7032953F70292F2F70932F990F392F330FF1
S1130A80330F930F920F978301C081E027960FB61F
S1130A90F894DEBF0FBECDBFDF91CF911F910F91B0
S1130AA0089582E00E945E0680934007682F60628A
S1130AB082E00E944B0683E00E945E06809340071A
S1130AC0682F606883E00E944B060895CF93C82F77
S1130AD08A3021F483E895E00E942F08C43121F480
S1130AE088E995E00E942F08CE3121F489EA95E047
S1130AF00E942F08CF91089587E30E945E06809399
S1130B0040078059833028F08AE00E94660580E01F
S1130B10089581E008950E94A705811105C080ED24
S1130B200E94CA05882329F084E10E94660580E0BA
S1130B30089581E008958091BC008823E4F7089526
S1130B4084E08093BC0088E48093B800089584EA2C
S1130B508093BC000E949B059091B900987F81E02E
S1130B60983009F480E0089584EA8093BC000E94E0
S1130B709B059091B900987F81E0903109F480E061
S1130B80089584E98093BC008091BC0084FDFCCF6F
S1130B9080E00895CF93C82F8093BB0084E88093AE
S1130BA0BC000E949B052091B900287F30E0C0FF63
S1130BB003C040E450E002C048E150E081E0421745
S1130BC0530709F480E0CF9108958093BB0084E833
S1130BD08093BC000E949B059091B900987F81E0AE
S1130BE0983209F480E00895CF93DF93EC0184EC0C
S1130BF08093BC000E949B058091BB0088839091E8
S1130C00B900987F81E0903509F480E0DF91CF91BD
S1130C100895CF93DF93EC0184E88093BC000E9495
S1130C209B058091BB0088839091B900987F81E0F7
S1130C30983509F480E0DF91CF910895EF92FF9207
S1130C400F931F93CF93DF937C018B0120E030E05F
S1130C5008C0C701820F931F0E94F4059E018111F1
S1130C6010C0E9012196C017D10798F3012B59F060
S1130C70C701820F931F0E940906882329F081E08F
S1130C8003C081E001C080E0DF91CF911F910F91FB
S1130C90FF90EF900895CF93C62F95B19B7F95B9A0
S1130CA090E0880F991F8E770E9411088C2F0E9464
S1130CB0110885B1846085B9CF91089595B19B7F62
S1130CC095B990E0880F991F8E7780680E9411086B
S1130CD080E00E94110895B1946095B908956FE081
S1130CE081E00E944B0608950E946F066DE88AE237
S1130CF00E944B066EE38BE20E944B066EE18CE28F
S1130D000E944B0660E08DE20E944B0660E485E1A0
S1130D100E944B066DE381E10E944B0684E10E9430
S1130D205E06982F937029F4682F636084E10E9413
S1130D304B0608954F925F926F927F928F929F928B
S1130D40AF92BF92CF92DF92EF92FF920F931F93D5
S1130D50CF93DF93D82F7B01C42F59018C3029F016
S1130D608E3061F0912C812C10C00F2EF0E39F2E59
S1130D70F02D0F2EF7E78F2EF02D07C068949924DD
S1130D8094F80F2EF2E18F2EF02D84E00E945E067F
S1130D90682F6F7784E00E944B068AE00E945E060B
S1130DA0682F60688AE00E944B0660E081E00E9440
S1130DB04B06412C512C32010CC0F701E40DF51DFA
S1130DC0608189E00E944B068FEF481A580A680A2E
S1130DD0780A8C2F90E0A0E0B0E0481659066A0625
S1130DE07B0658F36D2F81E00E944B06DC3041F402
S1130DF08DE00E945E06682F60688DE00E944B06BD
S1130E000F2EF0EDCF2EF7E0DF2EE12CF12CF02D9C
S1130E1084E00E945E06C82FE1E0CE1AD108E10802
S1130E20F10829F080FD03C0892D8C2389F38DE01E
S1130E300E945E06682F6F778DE00E944B06CD28D6
S1130E40CE28CF2809F460C086E00E945E068B712C
S1130E5009F05CC0C821C0FD02C0C1E001C0C2E00D
S1130E60DC3009F054C08AE00E945E06D82F8CE082
S1130E700E945E06282F2770A9F08D2F90E001971D
S1130E80880F991F880F991F880F991F820F911D32
S1130E90092E000CAA0BBB0BF80180839183A2835B
S1130EA0B38311C08D2F90E0880F991F880F991F6D
S1130EB0880F991F092E000CAA0BBB0BF801808325
S1130EC09183A283B383D11101C0D1E0D13108F061
S1130ED0D0E1C12CD12C76010DC085010C0D1D1D56
S1130EE089E00E945E06F8018083FFEFCF1ADF0AD3
S1130EF0EF0AFF0A8D2F90E0A0E0B0E0C816D906F3
S1130F00EA06FB0650F303C0C3E001C0C3E08C2F24
S1130F10DF91CF911F910F91FF90EF90DF90CF90D1
S1130F20BF90AF909F908F907F906F905F904F9005
S1130F300895EF92FF920F931F93CF93DF9300D006
S1130F4000D0CDB7DEB7182F7B0167E08DE00E949B
S1130F504B06F70110838E010F5F1F4F970141E08D
S1130F60B7018CE00E949A06813051F449815A817C
S1130F706B817C81403151056105710519F403C011
S1130F8083E001C083E00F900F900F900F90DF91EA
S1130F90CF911F910F91FF90EF900895EF92FF92E0
S1130FA00F931F93CF93DF9300D000D0CDB7DEB75C
S1130FB07C0160E08DE00E944B0683E9F7018083A9
S1130FC080E281838E010F5F1F4F970142E0B701DA
S1130FD08CE00E949A06813091F407C0F701E90F72
S1130FE0F11D308123279F5F02C020E090E0943000
S1130FF0A8F3F701E90FF11D9081291383E00F9005
S11310000F900F900F90DF91CF911F910F91FF9050
S1131010EF90089584B18C6284B98CB581658CBDE0
S113102008958EBD0DB407FEFDCF8EB508951092C0
S1131030C5008093C40088E98093C10086E0809352
S1131040C2008AB182608AB98AB18E7F8AB9089552
S11310509091C00095FFFCCF8093C6000895CF9374
S1131060DF93EC0103C00E94280821968881811136
S1131070FACFDF91CF9108951F920F920FB60F927E
S113108011242F933F934F935F936F937F938F9389
S11310909F93AF93BF93EF93FF932FEF83EC99E06C
S11310A0215080409040E1F700C000004B9908C0F7
S11310B08BB180588BB98AEB95E00E942F0803C04E
S11310C08BB180588BB9FF91EF91BF91AF919F91F4
S11310D08F917F916F915F914F913F912F910F90DD
S11310E00FBE0F901F90189585E080938100109299
S11310F0800081E080936F0008951F920F920FB6D5
S11311000F9211242F933F934F935F936F937F9389
S11311108F939F93AF93BF93EF93FF9380919E061A
S1131120882349F08BB18F778BB910929E068BEC94
S113113095E00E942F08FF91EF91BF91AF919F918D
S11311408F917F916F915F914F913F912F910F906C
S11311500FBE0F901F901895CF93DF93CDB7DEB7D6
S1131160CC55D2400FB6F894DEBF0FBECDBFFE0102
S1131170EB50FF4F88E0DF011D928A95E9F7C350D9
S1131180DF4F19821882CD5FD0400E940A08BFEF5A
S113119023ED80E3B15020408040E1F700C000001F
S11311A00E9474069FEFA9E6B8E19150A040B040B8
S11311B0E1F700C000000E947C05882379F088EDE7
S11311C095E00E942F082FEF89E698E12150804096
S11311D09040E1F700C000000E9451050E94A00564
S11311E00E948B05882321F08AEE95E00E942F0847
S11311F08AB180688AB98BB18F778BB98AB1877FBE
S11312008AB98BB188608BB9E8E6F0E080818460AC
S11312108083EDE6F0E08081886080830E9474081A
S1131220789488E00E9417080E94B10183E090E05E
S11312300E94CA0180E090E00E947C0168EF75E0A2
S113124083E096E00E94FF010E947C05882309F454
S11312507FC1BE016F5F7F4F82E50E949907813095
S113126009F06CC1CE0101960E94CE073C812B810E
S11312709A8189811F923F931F922F931F929F936C
S11312801F928F938BE196E09F938F937E01A1E150
S1131290EA0EF11CFF92EF920E94370CCE018B50A4
S11312A09F4F0E94C804CB50DF4F5881C55FD04088
S11312B0CA50DF4F4881C65FD040C950DF4F3881E4
S11312C0C75FD040C450DF4F2881CC5FD040C550A9
S11312D0DF4F9881CB5FD040C750DF4F8881C95F13
S11312E0D0401F925F931F924F931F923F931F9280
S11312F02F931F929F931F928F9387E296E09F9361
S11313008F936E01B1E9CB0ED11CDF92CF920E9474
S1131310370C49E356E0B70180E596E00E941704D4
S1131320BE0163507F4F8FE996E00E942A03C350A9
S1131330DF4F68817981CD5FD040C7010E94F90BEE
S11313408BB180688BB981E080939E068DE394E134
S1131350909385008093840049E356E06EE576E03F
S113136080E596E00E941704BE0163507F4F8FE929
S113137096E00E942A03C350DF4F68817981CD5FD4
S1131380D040C7010E94F90BBE0163507F4F8FE923
S113139096E00E942A03C350DF4F68817981CD5FB4
S11313A0D040C7010E94F90B49E356E06DE676E0B0
S11313B080E596E00E941704BE0163507F4F8FE9D9
S11313C096E00E942A03C350DF4F68817981CD5F84
S11313D0D0408E0101501F4FC8010E94F90BF80143
S11313E001900020E9F73197AF01401B510B4051A8
S11313F05109480121E1820E911CB401C8010E94E7
S1131400DC0BDF92CF920F2EF8E9AF2EF4E0BF2E63
S1131410F02DBF92AF92FF92EF920E94370C0FB65D
S1131420F894DEBF0FBECDBFB701C8010E94EE0B1A
S1131430980149E356E06DE676E080E596E00E9487
S113144059032FE736E049E356E06EE576E080E5A0
S113145096E00E94590349E356E065E876E080E5AA
S113146096E00E941704BE0163507F4F8FE996E017
S11314700E942A03C350DF4F68817981CD5FD04039
S1131480C8010E94F90BF80101900020E9F7319797
S1131490AF01401B510B40515109B401C8010E94D6
S11314A0DC0BDF92CF92BF92AF92FF92EF920E9439
S11314B0370CB701C8010E94EE0B980149E356E0CE
S11314C065E876E080E596E00E94590349E356E03A
S11314D06DE676E080E596E00E941704BE01635055
S11314E07F4F8FE996E00E942A03C350DF4F688143
S11314F07981CD5FD040C8010E94F90BF8010190B9
S11315000020E9F73197AF01401B510B43545109B7
S1131510BE016D5B7E4FC8010E94DC0B2FE736E0F5
S113152049E356E06EE576E080E596E00E945903D3
S11315300F900F900F900F900F900F909FEFA7EACE
S1131540B1E69150A040B040E1F700C000007CCE6D
S11315502FEF83ED90E3215080409040E1F700C0ED
S1131560000072CE0F931F93CF93DF9382309105C7
S113157010F482E090E0E0914307F091440720E00A
S113158030E0A0E0B0E0309719F140815181028150
S1131590138148175907C8F08417950769F4109701
S11315A031F012960C93129713961C9327C0009354
S11315B043071093440722C02115310519F042173F
S11315C0530718F49A01BD01EF01DF01F801DBCFE5
S11315D021153105F9F0281B390B2430310580F42D
S11315E08A819B816115710521F0FB0193838283BC
S11315F004C09093440780934307FE01329644C08D
S1131600FE01E20FF31F8193919322503109398334
S113161028833AC02091410730914207232B41F49B
S11316202091020130910301309342072093410736
S113163020910001309101012115310541F42DB7AC
S11316403EB74091040150910501241B350BE091F4
S11316504107F0914207E217F307A0F42E1B3F0B5A
S11316602817390778F0AC014E5F5F4F2417350710
S113167048F04E0F5F1F50934207409341078193F8
S1131680919302C0E0E0F0E0CF01DF91CF911F9190
S11316900F910895CF93DF93009709F481C0FC0163
S11316A0329713821282A0914307B0914407109796
S11316B081F420813181820F931F20914107309161
S11316C042072817390751F5F0934207E093410781
S11316D067C0ED0120E030E0CE17DF0740F44A8117
S11316E05B819E0141155105F1F0EA01F5CFD383E9
S11316F0C28340815181840F951FC817D90759F4BB
S113170088819981840F951F0296918380838A81B1
S11317109B81938382832115310529F4F093440737
S1131720E09343073DC0E901FB83EA834991599162
S1131730C40FD51FEC17FD0761F480819181840FDC
S1131740951F0296E90199838883828193819B8303
S11317508A83E0E0F0E012968D919C9113970097B4
S113176019F0FD01DC01F7CF8D919C9111979D013A
S11317702E5F3F4F820F931F209141073091420704
S11317802817390769F4309729F410924407109206
S1131790430702C013821282B0934207A093410709
S11317A0DF91CF910895FB01DC0102C001900D92FD
S11317B041505040D8F708956817790768F4FB0141
S11317C0DC01E40FF51FA40FB51F02C002900E92B6
S11317D041505040D8F708950C94D30BFB01DC0121
S11317E00D900020E9F7119701900D920020E1F788
S11317F00895FB01DC0101900D920020E1F70895AA
S1131800FB01DC014150504030F08D910190801972
S113181019F40020B9F7881B990B0895FB01DC012A
S11318204150504048F001900D920020C9F701C08A
S11318301D9241505040E0F70895FB01519155230A
S1131840A9F0BF01DC014D9145174111E1F759F4AD
S1131850CD010190002049F04D9140154111C9F38B
S1131860FB014111EFCF81E090E001970895AEE0D4
S1131870B0E0EDE3FCE00C94F80E0D891E8986E0DF
S11318808C831A8309838FEF9FE79E838D83AE0138
S1131890475E5F4F6F89788DCE0101960E94590C87
S11318A0EF81F885E00FF11F10822E96E4E00C948E
S11318B0140FABE0B0E0EFE5FCE00C94EA0E6C0131
S11318C07B018A01FC0117821682838181FFCCC1CE
S11318D0CE0101963C01F6019381F70193FD8591B8
S11318E093FF81917F01882309F4BAC1853239F4C9
S11318F093FD859193FF81917F01853229F4B6018F
S113190090E00E94500EE7CF912C212C312CFFE166
S1131910F315D8F08B3279F038F4803279F08332D1
S1131920A1F4232D20611DC08D3261F0803369F450
S1131930232D216016C0832D8260382EE32DE460B0
S11319403E2E2AC0F32DF8601DC037FC2DC020EDBB
S1131950280F2A3040F08E32B9F436FC81C1232D91
S11319602064322E19C036FE06C08AE0989E200DEF
S11319701124922E11C0EAE02E9E200D1124222E55
S1131980F32DF0623F2E08C08C3621F4832D80683D
S1131990382E02C0883641F4F70193FD859193FFF8
S11319A081917F018111B3CF982F9F7D95549330FE
S11319B028F40C5F1F4F9FE399830DC0833631F0E9
S11319C0833771F0833509F059C021C0F801808153
S11319D089830E5F1F4F88248394912C530113C075
S11319E02801F2E04F0E511CF801A080B18036FEB0
S11319F003C0692D70E002C06FEF7FEFC5010E9444
S1131A00450E4C018201F32DFF773F2E16C02801AD
S1131A1022E0420E511CF801A080B18036FE03C0C2
S1131A20692D70E002C06FEF7FEFC5010E943A0E8E
S1131A304C01F32DF0683F2E820133FC1BC0822D34
S1131A4090E088169906B0F4B60180E290E00E9416
S1131A50500E2A94F4CFF50137FC859137FE81911D
S1131A605F01B60190E00E94500E21102A9421E0FB
S1131A70821A91088114910471F7E8C0843611F038
S1131A80893641F5F80137FE07C060817181828192
S1131A9093810C5F1F4F08C060817181072E000C79
S1131AA0880B990B0E5F1F4FF32DFF763F2E97FF88
S1131AB009C090958095709561957F4F8F4F9F4F8A
S1131AC0F0683F2E2AE030E0A3010E948C0E882E9D
S1131AD0861845C0853731F4232D2F7EB22E2AE097
S1131AE030E025C0932D997FB92E8F36C1F018F4BC
S1131AF0883579F0B5C0803719F0883721F0B0C047
S1131B00E92FE061BE2EB4FE0DC0FB2DF460BF2EA4
S1131B1009C034FE0AC0292F2660B22E06C028E070
S1131B2030E005C020E130E002C020E132E0F801FD
S1131B30B7FE07C060817181828193810C5F1F4F62
S1131B4006C06081718180E090E00E5F1F4FA301A9
S1131B500E948C0E882E8618FB2DFF773F2E36FEB2
S1131B600DC0232D2E7FA22E891458F434FE0BC0F1
S1131B7032FC09C0832D8E7EA82E05C0B82CA32C60
S1131B8003C0B82C01C0B92CA4FE0FC0FE01E80D9F
S1131B90F11D8081803321F49A2D997EA92E09C0EC
S1131BA0A2FE06C0B394B39404C08A2D867809F0CB
S1131BB0B394A3FC11C0A0FE06C0B21488F4280C90
S1131BC0922C9B180EC0B21460F4B60180E290E02F
S1131BD00E94500EB394F7CFB21418F42B1802C01D
S1131BE0982C212CA4FE10C0B60180E390E00E9442
S1131BF0500EA2FE17C0A1FC03C088E790E002C00B
S1131C0088E590E0B6010CC08A2D867859F0A1FED3
S1131C1002C08BE201C080E2A7FC8DE2B60190E035
S1131C200E94500E891438F4B60180E390E00E94BB
S1131C30500E9A94F7CF8A94F301E80DF11D808138
S1131C40B60190E00E94500E8110F5CF222009F4D5
S1131C5042CEB60180E290E00E94500E2A94F6CF64
S1131C60F6018681978102C08FEF9FEF2B96E2E108
S1131C700C94060FFC010590615070400110D8F7D8
S1131C80809590958E0F9F1F0895FC0161507040C0
S1131C9001900110D8F7809590958E0F9F1F08959D
S1131CA00F931F93CF93DF93FB01238121FD03C087
S1131CB08FEF9FEF2CC022FF16C0468157812481ED
S1131CC035814217530744F4A081B1819D012F5FF0
S1131CD03F4F318320838C93268137812F5F3F4F81
S1131CE03783268314C08B01EC01FB010084F1854A
S1131CF0E02D0995892BE1F6D80116968D919C91DA
S1131D001797019617969C938E931697CE01DF91A1
S1131D10CF911F910F910895FA01AA27283051F10C
S1131D20203181F1E8946F936E7F6E5F7F4F8F4F08
S1131D309F4FAF4FB1E03ED0B4E03CD0670F781F67
S1131D40891F9A1FA11D680F791F8A1F911DA11D4C
S1131D506A0F711D811D911DA11D20D009F4689485
S1131D603F912AE0269F11243019305D3193DEF62D
S1131D70CF010895462F4770405D4193B3E00FD0E3
S1131D80C9F7F6CF462F4F70405D4A3318F0495DCE
S1131D9031FD4052419302D0A9F7EACFB4E0A695B1
S1131DA09795879577956795BA95C9F700976105D3
S1131DB0710508959B01AC010A2E06945795479529
S1131DC037952795BA95C9F7620F731F841F951F1E
S1131DD0A01D08952F923F924F925F926F927F922F
S1131DE08F929F92AF92BF92CF92DF92EF92FF9227
S1131DF00F931F93CF93DF93CDB7DEB7CA1BDB0BD3
S1131E000FB6F894DEBF0FBECDBF09942A88398877
S1131E1048885F846E847D848C849B84AA84B9847E
S1131E20C884DF80EE80FD800C811B81AA81B9818A
S1131E30CE0FD11D0FB6F894DEBF0FBECDBFED019E
S1091E400895F894FFCFA1
S1131E46000045072000504F5354202F76312F644D
S1131E566174612F77726974652F000000000000B9
S1131E660000000000000000000000000000000068
S1131E760000000000000000000000000000000058
S1131E860000000000000000000000000000000048
S1131E960000000000000000000000000000000038
S1131EA60000000000000000000000000000000028
S1131EB60000000000000000000000000000000018
S1131EC60000000000000000000000000000000008
S1131ED600000000000000000000000000000000F8
S1131EE600000000000000000000000000000000E8
S1131EF600000000000000000000000000000000D8
S1131F0600000000000000000000000000000000C7
S1131F1600000000000000000000000000000000B7
S1131F2600000000000000000000000000000000A7
S1131F360000000000000000000000000000000097
S1131F460000000000000000000000000000000087
S1131F560000000000000000000000000000000077
S1131F660000000000000000000000000000000067
S1131F760000000000000000000000000000000057
S1131F860000000000000000000000000000000047
S1131F960000000000000000000000000000000037
S1131FA600000000474554202F76312F6461746188
S1131FB62F726561642F000000000000000000001D
S1131FC60000000000000000000000000000000007
S1131FD600000000000000000000000000000000F7
S1131FE600000000000000000000000000000000E7
S1131FF600000000000000000000000000000000D7
S113200600000000000000000000000000000000C6
S113201600000000000000000000000000000000B6
S113202600000000000000000000000000000000A6
S11320360000000000000000000000000000000096
S11320460000000000000000000000000000000086
S11320560000000000000000000000000000000076
S11320660000000000000000000000000000000066
S11320760000000000000000000000000000000056
S11320860000000000000000000000000000000046
S11320960000000000000000000000000000000036
S11320A60000000000000000000000000000000026
S11320B60000000000000000000000000000000016
S11320C60000000000000000000000000000000006
S11320D600000000000000000000000000000000F6
S11320E600000000000000000000000000000000E6
S11320F600000000000000000000000000000000D6
S113210600000D0A4F4B0D0A0041542B4349504D14
S11321164F44453D25640041542B4349504D555881
S11321263D256400415445300041540041542B433D
S11321364950434C4F53453D310041542B43574D71
S11321464F44453D25640041542B43574A41503D75
S1132156222573222C22257322000D0A574946494B
S113216620434F4E4E45435445440D0A002B4357D6
S11321764A41503A31002B43574A41503A32002BD8
S113218643574A41503A33002B43574A41503A3455
S11321960041542B4349505354415455530053540E
S11321A6415455533A32005354415455533A33002B
S11321B65354415455533A34005354415455533AA5
S11321C6350041542B43495053544152543D2254F3
S11321D64350222C222573222C257300434F4E4E46
S11321E64543540D0A0041542B43495053454E442C
S11321F63D2564000D0A4F4B0D0A3E000D0A53455A
S11322064E44204F4B0D0A00646174610077747369
S1132216003830006170692E626565626F7474659A
S11322262E636F6D000D0A436F6E74656E742D6CAC
S1132236656E6774683A2000256C64000D0A0D0A01
S11322467B2264617461223A20003F6C696D697473
S11322563D3120485454502F312E310D0A416363C9
S11322666570743A206170706C69636174696F6E2D
S11322762F6A736F6E0D0A436F6E74656E742D54F8
S11322867970653A206170706C69636174696F6E08
S11322962F6A736F6E0D0A486F73743A2061706902
S11322A62E626565626F7474652E636F6D0D0A58D0
S11322B62D417574682D546F6B656E3A20000D0AB6
S11322C60D0A004E6F2073656E736F722064657419
S11322D665637465640D0A004E6F2052544320638F
S11322E66F6E65637461646F00455350206E6F2092
S11322F6636F6E65637461646F00426F746F6E2002
S1132306617072657461646F0D0A0054696D65725B
S11323162061637469766F0053656E736F7220640F
S1132326657465637465640D0A0052544320436FF3
S11323366E65637461646F0030313631383333331C
S1132346383600466962657274656C205769466959
S113235630353620322E3447487A0025783A2578A7
S11323663A25783A25780025642F25642F2564209C
S113237625643A25643A256400746F6B656E5F576D
S11323866C7177665A717A79634E69506F5A4B004D
S11323965461726A65746173007472756500746160
S11323A6726A6574615F325F626F6F6C007461722A
S11323B66A6574615F325F656E747261646100663A
S11323C6616C7365007461726A6574615F325F7310
S10923D6616C6964610002
S9030000FC
