S012000053656E736F72524649442E7372656373
S11300000C9434000C9451000C9451000C94510045
S11300100C9451000C9403040C9451000C94510062
S11300200C9451000C9451000C9451000C94510008
S11300300C9451000C9444040C9451000C94510001
S11300400C9451000C9451000C9451000C945100E8
S11300500C9451000C9451000C9451000C945100D8
S11300600C9451000C94510011241FBECFEFD8E022
S1130070DEBFCDBF11E0A0E0B1E0EEEBF0E102C0E5
S113008005900D92A83BB107D9F721E0A8EBB1E0A8
S113009001C01D92AA3BB207E1F70E9473040C94BD
S11300A05D080C940000EF92FF920F931F93CF937F
S11300B0C82F8B017A010E946F0181111EC080ED4F
S11300C00E94920181111BC08C2F0E94AD018111ED
S11300D018C00E947C01811116C081ED0E9492011A
S11300E0811113C0B701C8010E94E60181110FC03C
S11300F00E94890181110DC00DC081E00BC081E017
S113010009C081E007C081E005C081E003C081E04F
S113011001C081E0CF911F910F91FF90EF9008955E
S11301200F931F93CF93DF93CDB7DEB727970FB607
S1130130F894DEBF0FBECDBF8C0147E050E0BE0196
S11301406F5F7F4F80E00E945300811166C09981E8
S1130150392F32953F703770292F2F70330F932F1B
S1130160990F990F390F932F920FF80190839A8169
S1130170392F32953F703770292F2F70330F932FFB
S1130180990F990F390F932F920F91839B81292FE8
S113019022952F702370392F3F70220F422F440F66
S11301A0440F240F230F228392959F7093702C8108
S11301B02770990F940F920F93839D81392F329555
S11301C03F703370292F2F70330F932F990F990F8E
S11301D0390F932F920F94839E8197FB222720F946
S11301E0258394FB332730F9292F2F70932F990FF0
S11301F0392F330F330F930F920F96839F81392F2B
S113020032953F70292F2F70932F990F392F330F69
S1130210330F930F920F978301C081E027960FB697
S1130220F894DEBF0FBECDBFDF91CF911F910F9128
S1130230089582E00E9426028093B901682F6062CB
S113024082E00E94130283E00E9426028093B90197
S1130250682F606883E00E9413020895CF93C82F2B
S11302608A3021F480E091E00E94F603C43121F445
S113027085E191E00E94F603CE3121F486E291E01B
S11302800E94F603CF91089587E30E94260280938B
S1130290B9018059833028F08AE00E942E0180E061
S11302A0089581E008950E946F01811105C080EDD9
S11302B00E949201882329F084E10E942E0180E0AB
S11302C0089581E008958091BC008823E4F708959F
S11302D084E08093BC0088E48093B800089584EAA5
S11302E08093BC000E9463019091B900987F81E0E3
S11302F0983009F480E0089584EA8093BC000E9459
S113030063019091B900987F81E0903109F480E015
S1130310089584E98093BC008091BC0084FDFCCFE7
S113032080E00895CF93C82F8093BB0084E8809326
S1130330BC000E9463012091B900287F30E0C0FF17
S113034003C040E450E002C048E150E081E04217BD
S1130350530709F480E0CF9108958093BB0084E8AB
S11303608093BC000E9463019091B900987F81E062
S1130370983209F480E00895CF93DF93EC0184EC84
S11303808093BC000E9463018091BB00888390919C
S1130390B900987F81E0903509F480E0DF91CF9136
S11303A00895CF93DF93EC0184E88093BC000E940E
S11303B063018091BB0088839091B900987F81E0AC
S11303C0983509F480E0DF91CF910895EF92FF9280
S11303D00F931F93CF93DF937C018B0120E030E0D8
S11303E008C0C701820F931F0E94BC019E018111A6
S11303F010C0E9012196C017D10798F3012B59F0D9
S1130400C701820F931F0E94D101882329F081E044
S113041003C081E001C080E0DF91CF911F910F9173
S1130420FF90EF900895CF93C62F95B19B7F95B918
S113043090E0880F991F8E770E94D9038C2F0E9419
S1130440D90385B1846085B9CF91089595B19B7F17
S113045095B990E0880F991F8E7780680E94D90320
S113046080E00E94D90395B1946095B908956FE036
S113047081E00E94130208950E9437026DE88AE227
S11304800E9413026EE38BE20E9413026EE18CE27F
S11304900E94130260E08DE20E94130260E485E191
S11304A00E9413026DE381E10E94130284E10E9421
S11304B02602982F937029F4682F636084E10E94C8
S11304C0130208954F925F926F927F928F929F9240
S11304D0AF92BF92CF92DF92EF92FF920F931F934E
S11304E0CF93DF93D82F7B01C42F59018C3029F08F
S11304F08E3061F0912C812C10C00F2EF0E39F2ED2
S1130500F02D0F2EF7E78F2EF02D07C06894992455
S113051094F80F2EF2E18F2EF02D84E00E94260233
S1130520682F6F7784E00E9413028AE00E942602FB
S1130530682F60688AE00E94130260E081E00E94F4
S11305401302412C512C32010CC0F701E40DF51DAE
S1130550608189E00E9413028FEF481A580A680AE2
S1130560780A8C2F90E0A0E0B0E0481659066A069D
S11305707B0658F36D2F81E00E941302DC3041F4B6
S11305808DE00E942602682F60688DE00E941302AD
S11305900F2EF0EDCF2EF7E0DF2EE12CF12CF02D15
S11305A084E00E942602C82FE1E0CE1AD108E108B7
S11305B0F10829F080FD03C0892D8C2389F38DE097
S11305C00E942602682F6F778DE00E941302CD28C7
S11305D0CE28CF2809F460C086E00E9426028B71E1
S11305E009F05CC0C821C0FD02C0C1E001C0C2E086
S11305F0DC3009F054C08AE00E942602D82F8CE037
S11306000E942602282F2770A9F08D2F90E00197D1
S1130610880F991F880F991F880F991F820F911DAA
S1130620092E000CAA0BBB0BF80180839183A283D3
S1130630B38311C08D2F90E0880F991F880F991FE5
S1130640880F991F092E000CAA0BBB0BF80180839D
S11306509183A283B383D11101C0D1E0D13108F0D9
S1130660D0E1C12CD12C76010DC085010C0D1D1DCE
S113067089E00E942602F8018083FFEFCF1ADF0A87
S1130680EF0AFF0A8D2F90E0A0E0B0E0C816D9066B
S1130690EA06FB0650F303C0C3E001C0C3E08C2F9D
S11306A0DF91CF911F910F91FF90EF90DF90CF904A
S11306B0BF90AF909F908F907F906F905F904F907E
S11306C00895EF92FF920F931F93CF93DF9300D07F
S11306D000D0CDB7DEB7182F7B0167E08DE00E9414
S11306E01302F70110838E010F5F1F4F970141E042
S11306F0B7018CE00E946202813051F449815A8131
S11307006B817C81403151056105710519F403C089
S113071083E001C083E00F900F900F900F90DF9162
S1130720CF911F910F91FF90EF900895EF92FF9258
S11307300F931F93CF93DF9300D000D0CDB7DEB7D4
S11307407C0160E08DE00E94130283E9F70180835D
S113075080E281838E010F5F1F4F970142E0B70152
S11307608CE00E946202813091F407C0F701E90F26
S1130770F11D308123279F5F02C020E090E0943078
S1130780A8F3F701E90FF11D9081291383E00F907D
S11307900F900F900F90DF91CF911F910F91FF90C9
S11307A0EF90089584B18C6284B98CB581658CBD59
S11307B008958EBD0DB407FEFDCF8EB50895109239
S11307C0C50087E68093C400E1ECF0E088E1808313
S11307D086E08093C2008081806880830895909130
S11307E0C00095FFFCCF8093C6000895CF93DF939C
S11307F0EC0103C00E94EF03219688818111FACF96
S1130800DF91CF9108951F920F920FB60F9211248A
S11308102F933F934F935F936F937F938F939F9304
S1130820AF93BF93EF93FF932FEF83EC99E02150A5
S113083080409040E1F700C000004B9908C08BB1A4
S113084080588BB987E391E00E94F60303C08BB113
S113085080588BB9FF91EF91BF91AF919F918F9188
S11308607F916F915F914F913F912F910F900FBEA8
S11308700F901F90189585E080938100109280005E
S113088081E080936F0008951F920F920FB60F922C
S113089011242F933F934F935F936F937F938F9381
S11308A09F93AF93BF93EF93FF938091B8018823F5
S11308B049F08BB18F778BB91092B80188E491E03D
S11308C00E94F603FF91EF91BF91AF919F918F9199
S11308D07F916F915F914F913F912F910F900FBE38
S11308E00F901F901895CF93DF93CDB7DEB7C859FB
S11308F0D1090FB6F894DEBF0FBECDBFFE01EF568F
S1130900FF4F88E0DF011D928A95E9F70E94D20328
S1130910BFEF23ED80E3B15020408040E1F700C0F9
S113092000000E943C029FEFA9E6B8E19150A0406C
S1130930B040E1F700C0000080E80E94DF032FEF21
S113094089E698E1215080409040E1F700C0000022
S11309500E944401882379F085E591E00E94F60322
S1130960AFEFB9E628E1A150B0402040E1F700C064
S113097000000E9419010E9468010E94530188230B
S113098021F087E691E00E94F6038AB180688AB973
S11309908BB18F778BB98AB1877F8AB98BB1886025
S11309A08BB98BB18F778BB9E8E6F0E080818460F6
S11309B08083EDE6F0E08081886080830E943B04C0
S11309C078948BB18F778BB90E944401882309F402
S11309D080C0BE016F5F7F4F82E50E94610381305A
S11309E009F06DC0CE0101960E94960385E791E05F
S11309F00E94F6033C812B819A8189811F923F9347
S1130A001F922F931F929F931F928F9385E891E0DB
S1130A109F938F938E010F5E1F4F1F930F930E941E
S1130A207305C8010E94F6038BB180688BB981E01D
S1130A308093B8018DE394E19093850080938400C2
S1130A40CE018F569F4F0E949000CF56DF4F5881A2
S1130A50C159D040CE56DF4F4881C259D040CD56FF
S1130A60DF4F3881C359D040C856DF4F2881C85959
S1130A70D040C956DF4F9881C759D040CB56DF4F7D
S1130A808881C559D0401F925F931F924F931F9244
S1130A903F931F922F931F929F931F928F938BE9E3
S1130AA091E09F938F931F930F930E947305C80146
S1130AB00E94F6030FB6F894DEBF0FBECDBF9FEFC2
S1130AC0A7EAB1E69150A040B040E1F700C00000B1
S1130AD07BCF2FEF83ED90E3215080409040E1F7EE
S1130AE000C0000071CFAEE0B0E0E9E7F5E00C949F
S1130AF034080D891E8986E08C831A8309838FEF5D
S1130B009FE79E838D83AE01475E5F4F6F89788D2B
S1130B10CE0101960E949505EF81F885E00FF11F43
S1130B2010822E96E4E00C945008ABE0B0E0EBE9C0
S1130B30F5E00C9426086C017B018A01FC01178204
S1130B401682838181FFCCC1CE0101963C01F6015E
S1130B509381F70193FD859193FF81917F01882310
S1130B6009F4BAC1853239F493FD859193FF8191DB
S1130B707F01853229F4B60190E00E948C07E7CF0B
S1130B80912C212C312CFFE1F315D8F08B3279F024
S1130B9038F4803279F08332A1F4232D20611DC012
S1130BA08D3261F0803369F4232D216016C0832DCA
S1130BB08260382EE32DE4603E2E2AC0F32DF860C7
S1130BC01DC037FC2DC020ED280F2A3040F08E3296
S1130BD0B9F436FC81C1232D2064322E19C036FEAF
S1130BE006C08AE0989E200D1124922E11C0EAE0DE
S1130BF02E9E200D1124222EF32DF0623F2E08C0CC
S1130C008C3621F4832D8068382E02C0883641F456
S1130C10F70193FD859193FF81917F018111B3CFFA
S1130C20982F9F7D9554933028F40C5F1F4F9FE3BA
S1130C3099830DC0833631F0833771F0833509F021
S1130C4059C021C0F801808189830E5F1F4F882419
S1130C508394912C530113C02801F2E04F0E511CD0
S1130C60F801A080B18036FE03C0692D70E002C097
S1130C706FEF7FEFC5010E9481074C018201F32DC4
S1130C80FF773F2E16C0280122E0420E511CF801C6
S1130C90A080B18036FE03C0692D70E002C06FEF02
S1130CA07FEFC5010E9476074C01F32DF0683F2EBB
S1130CB0820133FC1BC0822D90E088169906B0F4A3
S1130CC0B60180E290E00E948C072A94F4CFF501EB
S1130CD037FC859137FE81915F01B60190E00E9457
S1130CE08C0721102A9421E0821A9108811491041E
S1130CF071F7E8C0843611F0893641F5F80137FE02
S1130D0007C060817181828193810C5F1F4F08C08D
S1130D1060817181072E000C880B990B0E5F1F4FA9
S1130D20F32DFF763F2E97FF09C09095809570951F
S1130D3061957F4F8F4F9F4FF0683F2E2AE030E040
S1130D40A3010E94C807882E861845C0853731F450
S1130D50232D2F7EB22E2AE030E025C0932D997FDB
S1130D60B92E8F36C1F018F4883579F0B5C08037C4
S1130D7019F0883721F0B0C0E92FE061BE2EB4FE2F
S1130D800DC0FB2DF460BF2E09C034FE0AC0292F0C
S1130D902660B22E06C028E030E005C020E130E035
S1130DA002C020E132E0F801B7FE07C06081718122
S1130DB0828193810C5F1F4F06C06081718180E046
S1130DC090E00E5F1F4FA3010E94C807882E86186B
S1130DD0FB2DFF773F2E36FE0DC0232D2E7FA22E36
S1130DE0891458F434FE0BC032FC09C0832D8E7E66
S1130DF0A82E05C0B82CA32C03C0B82C01C0B92C54
S1130E00A4FE0FC0FE01E80DF11D8081803321F4A2
S1130E109A2D997EA92E09C0A2FE06C0B394B3945C
S1130E2004C08A2D867809F0B394A3FC11C0A0FEF7
S1130E3006C0B21488F4280C922C9B180EC0B2146D
S1130E4060F4B60180E290E00E948C07B394F7CF7F
S1130E50B21418F42B1802C0982C212CA4FE10C034
S1130E60B60180E390E00E948C07A2FE17C0A1FCAB
S1130E7003C088E790E002C088E590E0B6010CC0AA
S1130E808A2D867859F0A1FE02C08BE201C080E26F
S1130E90A7FC8DE2B60190E00E948C07891438F417
S1130EA0B60180E390E00E948C079A94F7CF8A946D
S1130EB0F301E80DF11D8081B60190E00E948C07DA
S1130EC08110F5CF222009F442CEB60180E290E0F1
S1130ED00E948C072A94F6CFF6018681978102C07E
S1130EE08FEF9FEF2B96E2E10C944208FC010590F2
S1130EF0615070400110D8F7809590958E0F9F1F18
S1130F000895FC016150704001900110D8F780955C
S1130F1090958E0F9F1F08950F931F93CF93DF9388
S1130F20FB01238121FD03C08FEF9FEF2CC022FF23
S1130F3016C046815781248135814217530744F4F2
S1130F40A081B1819D012F5F3F4F318320838C931A
S1130F50268137812F5F3F4F3783268314C08B014F
S1130F60EC01FB010084F185E02D0995892BE1F664
S1130F70D80116968D919C911797019617969C937C
S1130F808E931697CE01DF91CF911F910F91089503
S1130F90FA01AA27283051F1203181F1E8946F93A6
S1130FA06E7F6E5F7F4F8F4F9F4FAF4FB1E03ED04C
S1130FB0B4E03CD0670F781F891F9A1FA11D680FEA
S1130FC0791F8A1F911DA11D6A0F711D811D911D1D
S1130FD0A11D20D009F468943F912AE0269F112492
S1130FE03019305D3193DEF6CF010895462F4770F6
S1130FF0405D4193B3E00FD0C9F7F6CF462F4F7051
S1131000405D4A3318F0495D31FD4052419302D0AE
S1131010A9F7EACFB4E0A695979587957795679554
S1131020BA95C9F700976105710508959B01AC0154
S11310300A2E06945795479537952795BA95C9F77B
S1131040620F731F841F951FA01D08952F923F9256
S11310504F925F926F927F928F929F92AF92BF92C4
S1131060CF92DF92EF92FF920F931F93CF93DF9370
S1131070CDB7DEB7CA1BDB0B0FB6F894DEBF0FBECD
S1131080CDBF09942A88398848885F846E847D841A
S11310908C849B84AA84B984C884DF80EE80FD801C
S11310A00C811B81AA81B981CE0FD11D0FB6F89492
S11110B0DEBF0FBECDBFED010895F894FFCF53
S11310BE4E6F2073656E736F72206465746563740E
S11310CE65640D0A004E6F2052544320636F6E65A3
S11310DE637461646F00455350206E6F20636F6EAE
S11310EE65637461646F00426F746F6E2061707219
S11310FE657461646F0D0A0054696D6572206163D5
S113110E7469766F0053656E736F722064657465CF
S113111E637465640D0A0052544320436F6E656315
S113112E7461646F00434152442044455445435412
S113113E45440D0A0043617264203A202578202527
S113114E78202578202578200D0A00436C6F636B78
S113115E203D2025642F25642F25642025643A25FF
S10B116E643A2564200D0A0017
S9030000FC
