S012000053656E736F72524649442E7372656373
S11300000C9434000C94ED030C9451000C945100A6
S11300100C9451000C9451000C9451000C94510018
S11300200C9451000C9451000C9451000C94510008
S11300300C9451000C9451000C9451000C945100F8
S11300400C9451000C9451000C9451000C945100E8
S11300500C9451000C9451000C9451000C945100D8
S11300600C9451000C94510011241FBECFEFD8E022
S1130070DEBFCDBF11E0A0E0B1E0E6ECFFE002C0DE
S113008005900D92AE38B107D9F721E0AEE8B1E0A2
S113009001C01D92AF38B207E1F70E9416040C9418
S11300A0E1070C940000EF92FF920F931F93CF93FC
S11300B0C82F8B017A010E94590181111EC080ED65
S11300C00E947C0181111BC08C2F0E949701811119
S11300D018C00E946601811116C081ED0E947C0146
S11300E0811113C0B701C8010E94D00181110FC052
S11300F00E94730181110DC00DC081E00BC081E02D
S113010009C081E007C081E005C081E003C081E04F
S113011001C081E0CF911F910F91FF90EF9008955E
S11301200F931F93CF93DF93CDB7DEB727970FB607
S1130130F894DEBF0FBECDBF8C0147E050E0BE0196
S11301406F5F7F4F80E00E945300811166C09981E8
S1130150392F32953F703770292F2F70330F932F1B
S1130160990F990F390F932F920FF80190839A8169
S1130170392F32953F703770292F2F70330F932FFB
S1130180990F990F390F932F920F91839B81292FE8
S113019022952F702370392F3F70220F422F440F66
S11301A0440F240F230F228392959F7093702C8108
S11301B02770990F940F920F93839D81392F329555
S11301C03F703370292F2F70330F932F990F990F8E
S11301D0390F932F920F94839E8197FB222720F946
S11301E0258394FB332730F9292F2F70932F990FF0
S11301F0392F330F330F930F920F96839F81392F2B
S113020032953F70292F2F70932F990F392F330F69
S1130210330F930F920F978301C081E027960FB697
S1130220F894DEBF0FBECDBFDF91CF911F910F9128
S1130230089582E00E94100280938E01682F60620C
S113024082E00E94FD0183E00E94100280938E01EF
S1130250682F606883E00E94FD010895CF93C82F42
S11302608A3021F480E091E00E94E003C43121F45B
S113027085E191E00E94E003CF91089587E30E9415
S1130280100280938E018059833028F08AE00E9406
S11302902E0180E0089581E008958091BC008823B8
S11302A0E4F7089584E08093BC0088E48093B80068
S11302B0089584EA8093BC000E944D019091B90096
S11302C0987F81E0983009F480E0089584EA80936F
S11302D0BC000E944D019091B900987F81E090315B
S11302E009F480E0089584E98093BC008091BC0007
S11302F084FDFCCF80E00895CF93C82F8093BB008A
S113030084E88093BC000E944D012091B900287FAD
S113031030E0C0FF03C040E450E002C048E150E0D8
S113032081E04217530709F480E0CF910895809348
S1130330BB0084E88093BC000E944D019091B900F9
S1130340987F81E0983209F480E00895CF93DF9399
S1130350EC0184EC8093BC000E944D018091BB00B1
S113036088839091B900987F81E0903509F480E00A
S1130370DF91CF910895CF93DF93EC0184E88093CC
S1130380BC000E944D018091BB0088839091B9000C
S1130390987F81E0983509F480E0DF91CF9108954A
S11303A0EF92FF920F931F93CF93DF937C018B0106
S11303B020E030E008C0C701820F931F0E94A6010D
S11303C09E01811110C0E9012196C017D10798F34D
S11303D0012B59F0C701820F931F0E94BB01882390
S11303E029F081E003C081E001C080E0DF91CF917A
S11303F01F910F91FF90EF900895CF93C62F95B161
S11304009B7F95B990E0880F991F8E770E94C30354
S11304108C2F0E94C30385B1846085B9CF91089560
S113042095B19B7F95B990E0880F991F8E7780686E
S11304300E94C30380E00E94C30395B1946095B900
S113044008956FE081E00E94FD0108950E94210259
S11304506DE88AE20E94FD016EE38BE20E94FD01D9
S11304606EE18CE20E94FD0160E08DE20E94FD01DC
S113047060E485E10E94FD016DE381E10E94FD01DC
S113048084E10E941002982F937029F4682F63600E
S113049084E10E94FD0108954F925F926F927F92D2
S11304A08F929F92AF92BF92CF92DF92EF92FF9280
S11304B00F931F93CF93DF93D82F7B01C42F590140
S11304C08C3029F08E3061F0912C812C10C00F2ECD
S11304D0F0E39F2EF02D0F2EF7E78F2EF02D07C09F
S11304E06894992494F80F2EF2E18F2EF02D84E075
S11304F00E941002682F6F7784E00E94FD018AE059
S11305000E941002682F60688AE00E94FD0160E08A
S113051081E00E94FD01412C512C32010CC0F701F5
S1130520E40DF51D608189E00E94FD018FEF481AFA
S1130530580A680A780A8C2F90E0A0E0B0E04816C8
S113054059066A067B0658F36D2F81E00E94FD016F
S1130550DC3041F48DE00E941002682F60688DE069
S11305600E94FD010F2EF0EDCF2EF7E0DF2EE12CDF
S1130570F12CF02D84E00E941002C82FE1E0CE1A85
S1130580D108E108F10829F080FD03C0892D8C23EE
S113059089F38DE00E941002682F6F778DE00E942E
S11305A0FD01CD28CE28CF2809F460C086E00E9442
S11305B010028B7109F05CC0C821C0FD02C0C1E00B
S11305C001C0C2E0DC3009F054C08AE00E9410028D
S11305D0D82F8CE00E941002282F2770A9F08D2FAD
S11305E090E00197880F991F880F991F880F991F12
S11305F0820F911D092E000CAA0BBB0BF8018083FE
S11306009183A283B38311C08D2F90E0880F991F2B
S1130610880F991F880F991F092E000CAA0BBB0B7A
S1130620F80180839183A283B383D11101C0D1E007
S1130630D13108F0D0E1C12CD12C76010DC0850157
S11306400C0D1D1D89E00E941002F8018083FFEF4C
S1130650CF1ADF0AEF0AFF0A8D2F90E0A0E0B0E086
S1130660C816D906EA06FB0650F303C0C3E001C06E
S1130670C3E08C2FDF91CF911F910F91FF90EF90EA
S1130680DF90CF90BF90AF909F908F907F906F90AE
S11306905F904F900895EF92FF920F931F93CF9323
S11306A0DF9300D000D0CDB7DEB7182F7B0167E011
S11306B08DE00E94FD01F70110838E010F5F1F4F33
S11306C0970141E0B7018CE00E944C02813051F463
S11306D049815A816B817C814031510561057105E5
S11306E019F403C083E001C083E00F900F900F90D2
S11306F00F90DF91CF911F910F91FF90EF9008958C
S1130700EF92FF920F931F93CF93DF9300D000D00B
S1130710CDB7DEB77C0160E08DE00E94FD0183E986
S1130720F701808380E281838E010F5F1F4F970161
S113073042E0B7018CE00E944C02813091F407C082
S1130740F701E90FF11D308123279F5F02C020E0EC
S113075090E09430A8F3F701E90FF11D908129137B
S113076083E00F900F900F900F90DF91CF911F9126
S11307700F91FF90EF90089584B18C6284B98CB589
S113078081658CBD08958EBD0DB407FEFDCF8EB579
S113079008951092C50087E68093C400E1ECF0E070
S11307A088E1808386E08093C200808180688083B2
S11307B008959091C00095FFFCCF8093C6000895E2
S11307C0CF93DF93EC0103C00E94D9032196888163
S11307D08111FACFDF91CF9108951F920F920FB636
S11307E00F9211242F933F934F935F936F937F93B3
S11307F08F939F93AF93BF93EF93FF938BB18058E5
S11308008BB988E291E00E94E003FF91EF91BF91E0
S1130810AF919F918F917F916F915F914F913F9194
S11308202F910F900FBE0F901F901895CF93DF93C9
S1130830CDB7DEB7C859D1090FB6F894DEBF0FBEE5
S1130840CDBFFE01EF56FF4F88E0DF011D928A9570
S1130850E9F70E94BC03BFEF23ED80E3B1502040D1
S11308608040E1F700C000000E9426029FEFA9E645
S1130870B8E19150A040B040E1F700C0000080E82A
S11308800E94C9032FEF89E698E1215080409040EF
S1130890E1F700C000000E943E01882379F089E35B
S11308A091E00E94E003AFEFB9E628E1A150B04027
S11308B02040E1F700C000000E9419010E9452018B
S11308C0F8948AB180688AB98BB18F778BB98AB171
S11308D08B7F8AB98BB184608BB982E08093690085
S11308E081E08DBB1CBA78940E943E01882309F4F0
S11308F074C0BE016F5F7F4F82E50E944B0381305D
S113090009F061C0CE0101960E9480038BE491E05E
S11309100E94E0033C812B819A8189811F923F933D
S11309201F922F931F929F931F928F938BE591E0B9
S11309309F938F938E010F5E1F4F1F930F930E94FF
S1130940F704C8010E94E003CE018F569F4F0E9416
S11309509000CF56DF4F5881C159D040CE56DF4F5B
S11309604881C259D040CD56DF4F3881C359D04059
S1130970C856DF4F2881C859D040C956DF4F9881E7
S1130980C759D040CB56DF4F8881C559D0401F92FC
S11309905F931F924F931F923F931F922F931F9227
S11309A09F931F928F9381E791E09F938F931F935F
S11309B00F930E94F704C8010E94E0030FB6F89455
S11309C0DEBF0FBECDBF9FEFA7EAB1E69150A040B6
S11309D0B040E1F700C0000087CF2FEF83ED90E334
S11309E0215080409040E1F700C000007DCFAEE090
S11309F0B0E0EDEFF4E00C94B8070D891E8986E0B1
S1130A008C831A8309838FEF9FE79E838D83AE01C6
S1130A10475E5F4F6F89788DCE0101960E9419055C
S1130A20EF81F885E00FF11F10822E96E4E00C941C
S1130A30D407ABE0B0E0EFE1F5E00C94AA076C0159
S1130A407B018A01FC0117821682838181FFCCC15C
S1130A50CE0101963C01F6019381F70193FD859146
S1130A6093FF81917F01882309F4BAC1853239F457
S1130A7093FD859193FF81917F01853229F4B6011D
S1130A8090E00E941007E7CF912C212C312CFFE13C
S1130A90F315D8F08B3279F038F4803279F0833260
S1130AA0A1F4232D20611DC08D3261F0803369F4DF
S1130AB0232D216016C0832D8260382EE32DE4603F
S1130AC03E2E2AC0F32DF8601DC037FC2DC020ED4A
S1130AD0280F2A3040F08E32B9F436FC81C1232D20
S1130AE02064322E19C036FE06C08AE0989E200D7E
S1130AF01124922E11C0EAE02E9E200D1124222EE4
S1130B00F32DF0623F2E08C08C3621F4832D8068CB
S1130B10382E02C0883641F4F70193FD859193FF86
S1130B2081917F018111B3CF982F9F7D955493308C
S1130B3028F40C5F1F4F9FE399830DC0833631F077
S1130B40833771F0833509F059C021C0F8018081E1
S1130B5089830E5F1F4F88248394912C530113C003
S1130B602801F2E04F0E511CF801A080B18036FE3E
S1130B7003C0692D70E002C06FEF7FEFC5010E94D2
S1130B8005074C018201F32DFF773F2E16C0280183
S1130B9022E0420E511CF801A080B18036FE03C051
S1130BA0692D70E002C06FEF7FEFC5010E94FA0665
S1130BB04C01F32DF0683F2E820133FC1BC0822DC3
S1130BC090E088169906B0F4B60180E290E00E94A5
S1130BD010072A94F4CFF50137FC859137FE8191F3
S1130BE05F01B60190E00E94100721102A9421E0D1
S1130BF0821A91088114910471F7E8C0843611F0C7
S1130C00893641F5F80137FE07C060817181828120
S1130C1093810C5F1F4F08C060817181072E000C07
S1130C20880B990B0E5F1F4FF32DFF763F2E97FF16
S1130C3009C090958095709561957F4F8F4F9F4F18
S1130C40F0683F2E2AE030E0A3010E944C07882E72
S1130C50861845C0853731F4232D2F7EB22E2AE025
S1130C6030E025C0932D997FB92E8F36C1F018F44A
S1130C70883579F0B5C0803719F0883721F0B0C0D5
S1130C80E92FE061BE2EB4FE0DC0FB2DF460BF2E33
S1130C9009C034FE0AC0292F2660B22E06C028E0FF
S1130CA030E005C020E130E002C020E132E0F8018C
S1130CB0B7FE07C060817181828193810C5F1F4FF1
S1130CC006C06081718180E090E00E5F1F4FA30138
S1130CD00E944C07882E8618FB2DFF773F2E36FE88
S1130CE00DC0232D2E7FA22E891458F434FE0BC080
S1130CF032FC09C0832D8E7EA82E05C0B82CA32CEF
S1130D0003C0B82C01C0B92CA4FE0FC0FE01E80D2D
S1130D10F11D8081803321F49A2D997EA92E09C07A
S1130D20A2FE06C0B394B39404C08A2D867809F059
S1130D30B394A3FC11C0A0FE06C0B21488F4280C1E
S1130D40922C9B180EC0B21460F4B60180E290E0BD
S1130D500E941007B394F7CFB21418F42B1802C0F2
S1130D60982C212CA4FE10C0B60180E390E00E94D0
S1130D701007A2FE17C0A1FC03C088E790E002C0E0
S1130D8088E590E0B6010CC08A2D867859F0A1FE62
S1130D9002C08BE201C080E2A7FC8DE2B60190E0C4
S1130DA00E941007891438F4B60180E390E00E9491
S1130DB010079A94F7CF8A94F301E80DF11D80810E
S1130DC0B60190E00E9410078110F5CF222009F4AB
S1130DD042CEB60180E290E00E9410072A94F6CF3A
S1130DE0F6018681978102C08FEF9FEF2B96E2E197
S1130DF00C94C607FC010590615070400110D8F7AF
S1130E00809590958E0F9F1F0895FC01615070404E
S1130E1001900110D8F7809590958E0F9F1F08952B
S1130E200F931F93CF93DF93FB01238121FD03C015
S1130E308FEF9FEF2CC022FF16C04681578124817B
S1130E4035814217530744F4A081B1819D012F5F7E
S1130E503F4F318320838C93268137812F5F3F4F0F
S1130E603783268314C08B01EC01FB010084F185D8
S1130E70E02D0995892BE1F6D80116968D919C9168
S1130E801797019617969C938E931697CE01DF9130
S1130E90CF911F910F910895FA01AA27283051F19B
S1130EA0203181F1E8946F936E7F6E5F7F4F8F4F97
S1130EB09F4FAF4FB1E03ED0B4E03CD0670F781FF6
S1130EC0891F9A1FA11D680F791F8A1F911DA11DDB
S1130ED06A0F711D811D911DA11D20D009F4689414
S1130EE03F912AE0269F11243019305D3193DEF6BC
S1130EF0CF010895462F4770405D4193B3E00FD072
S1130F00C9F7F6CF462F4F70405D4A3318F0495D5C
S1130F1031FD4052419302D0A9F7EACFB4E0A6953F
S1130F209795879577956795BA95C9F70097610561
S1130F30710508959B01AC010A2E069457954795B7
S1130F4037952795BA95C9F7620F731F841F951FAC
S1130F50A01D08952F923F924F925F926F927F92BD
S1130F608F929F92AF92BF92CF92DF92EF92FF92B5
S1130F700F931F93CF93DF93CDB7DEB7CA1BDB0B61
S1130F800FB6F894DEBF0FBECDBF09942A88398806
S1130F9048885F846E847D848C849B84AA84B9840D
S1130FA0C884DF80EE80FD800C811B81AA81B98119
S1130FB0CE0FD11D0FB6F894DEBF0FBECDBFED012D
S1090FC00895F894FFCF30
S1130FC64E6F2073656E736F722064657465637407
S1130FD665640D0A004572726F72207265616469F8
S1130FE66E67206361726400426F746F6E20617075
S1130FF672657461646F0D0A0053656E736F7220B7
S113100664657465637465640D0A00434152442043
S113101644455445435445440D0A004361726420D3
S11310263A202578202578202578202578200D0A51
S113103600436C6F636B203D2025642F25642F25A8
S1111046642025643A25643A2564200D0A00CE
S9030000FC
