:100000000C9434000C9451000C9451000C94510049
:100010000C9451000C9451000C9451000C9451001C
:100020000C9451000C9451000C9451000C9451000C
:100030000C9451000C9451000C9451000C945100FC
:100040000C9451000C9451000C9451000C945100EC
:100050000C9451000C9451000C9451000C945100DC
:100060000C9451000C94510011241FBECFEFD8E026
:10007000DEBFCDBF11E0A0E0B1E0E4ECF5E002C0EE
:1000800005900D92A435B107D9F721E0A4E5B1E0C0
:1000900001C01D92A435B207E1F70E9443020C94FF
:1000A000E0020C940000CF93C62F95B19B7F95B9C9
:1000B00090E0880F991F8E770E9419028C2F0E9462
:1000C000190285B1846085B9CF91089595B19B7F60
:1000D00095B990E0880F991F8E7780680E94190269
:1000E00080E00E94190295B1946095B908956FE07F
:1000F00081E00E94530008950E9477006DE88AE233
:100100000E9453006EE38BE20E9453006EE18CE28A
:100110000E94530060E08DE20E94530060E485E19C
:100120000E9453006DE381E10E94530084E10E942C
:100130006600982F937029F4682F636084E10E9411
:10014000530008954F925F926F927F928F929F9289
:10015000AF92BF92CF92DF92EF92FF920F931F93D5
:10016000CF93DF93D82F7B01C42F59018C3029F016
:100170008E3061F0912C812C10C00F2EF0E39F2E59
:10018000F02D0F2EF7E78F2EF02D07C068949924DD
:1001900094F80F2EF2E18F2EF02D84E00E9466007D
:1001A000682F6F7784E00E9453008AE00E94660007
:1001B000682F60688AE00E94530060E081E00E943E
:1001C0005300412C512C32010CC0F701E40DF51DF8
:1001D000608189E00E9453008FEF481A580A680A2C
:1001E000780A8C2F90E0A0E0B0E0481659066A0625
:1001F0007B0658F36D2F81E00E945300DC3041F400
:100200008DE00E946600682F60688DE00E945300B8
:100210000F2EF0EDCF2EF7E0DF2EE12CF12CF02D9C
:1002200084E00E946600C82FE1E0CE1AD108E10800
:10023000F10829F080FD03C0892D8C2389F38DE01E
:100240000E946600682F6F778DE00E945300CD28D2
:10025000CE28CF2809F460C086E00E9466008B712A
:1002600009F05CC0C821C0FD02C0C1E001C0C2E00D
:10027000DC3009F054C08AE00E946600D82F8CE080
:100280000E946600282F2770A9F08D2F90E001971B
:10029000880F991F880F991F880F991F820F911D32
:1002A000092E000CAA0BBB0BF80180839183A2835B
:1002B000B38311C08D2F90E0880F991F880F991F6D
:1002C000880F991F092E000CAA0BBB0BF801808325
:1002D0009183A283B383D11101C0D1E0D13108F061
:1002E000D0E1C12CD12C76010DC085010C0D1D1D56
:1002F00089E00E946600F8018083FFEFCF1ADF0AD1
:10030000EF0AFF0A8D2F90E0A0E0B0E0C816D906F2
:10031000EA06FB0650F303C0C3E001C0C3E08C2F24
:10032000DF91CF911F910F91FF90EF90DF90CF90D1
:10033000BF90AF909F908F907F906F905F904F9005
:100340000895EF92FF920F931F93CF93DF9300D006
:1003500000D0CDB7DEB7182F7B0167E08DE00E949B
:100360005300F70110838E010F5F1F4F970141E08B
:10037000B7018CE00E94A200813051F449815A817A
:100380006B817C81403151056105710519F403C011
:1003900083E001C083E00F900F900F900F90DF91EA
:1003A000CF911F910F91FF90EF900895EF92FF92E0
:1003B0000F931F93CF93DF9300D000D0CDB7DEB75C
:1003C0007C0160E08DE00E94530083E9F7018083A7
:1003D00080E281838E010F5F1F4F970142E0B701DA
:1003E0008CE00E94A200813091F407C0F701E90F70
:1003F000F11D308123279F5F02C020E090E0943000
:10040000A8F3F701E90FF11D9081291383E00F9004
:100410000F900F900F90DF91CF911F910F91FF9050
:10042000EF90089584B18C6284B98CB581658CBDE0
:1004300008958EBD0DB407FEFDCF8EB508951092C0
:10044000C50087E68093C400E1ECF0E088E180839A
:1004500086E08093C20080818068808308959091B7
:10046000C00095FFFCCF8093C6000895CF93DF9323
:10047000EC0103C00E942F02219688818111FACFDE
:10048000DF91CF910895CF93DF93CDB7DEB760971B
:100490000FB6F894DEBF0FBECDBF2FEF80E792E01E
:1004A000215080409040E1F700C000000E941202FD
:1004B0002FEF83ED90E3215080409040E1F700C0A2
:1004C00000000E947C0080E80E941F0287E30E94D7
:1004D0006600823959F40E942F0280E091E00E9468
:1004E00036028FE091E00E94360210C080598230BF
:1004F00048F488E191E00E9436028FE091E00E948A
:10050000360204C087E291E00E94360282E00E9437
:100510006600682F606282E00E94530083E00E94C0
:100520006600682F606883E00E9453002FEF8DE320
:1005300099E4215080409040E1F700C00000BE01E6
:100540006F5F7F4F82E50E94A101813079F58AE3D8
:1005500091E00E943602CE0101960E94D601182F2A
:100560008DE391E00E9436021130E1F40CC0E1E02D
:10057000F0E0EC0FFD1FE00FF11F80810E942F02C1
:100580000F5F1F4F02C000E010E0043011057CF344
:100590002FEF81E19AE7215080409040E1F700C0C1
:1005A000000004C08AE491E00E9436022FEF83ED40
:1005B00090E3215080409040E1F700C00000BFCFA1
:0405C000F894FFCFDD
:1005C4004D49464152452052433532327632004439
:1005D40065746563746564004D4946415245205213
:1005E400433532327631004E4F2072656164657254
:1005F400206465746563746564000D0A00434152A8
:100604004420464F554E443A20004572726F7200A2
:040614002575000048
:00000001FF
